:020000040800F2
:10000000307700209D0100082F23000829210008D7
:100010002D2300084D0400081142000800000000D4
:10002000000000000000000000000000AD240008F7
:100030001F07000800000000AB240008112600087C
:10004000B7010008B7010008B7010008B7010008B0
:10005000B7010008B7010008B7010008B7010008A0
:10006000B7010008B7010008B7010008B701000890
:10007000B7010008B7010008B7010008B701000880
:10008000B7010008B7010008B7010008B701000870
:10009000B7010008B7010008B7010008B701000860
:1000A000B7010008B7010008B7010008B701000850
:1000B000B7010008B7010008B7010008B701000840
:1000C000B7010008B7010008B7010008B701000830
:1000D000B7010008B70100083D2B0008B701000870
:1000E000B7010008B7010008B7010008B701000810
:1000F000B7010008B7010008B7010008B701000800
:10010000B7010008B7010008B7010008B7010008EF
:10011000E9270008B7010008B7010008B701000887
:10012000B7010008B7010008B7010008B7010008CF
:10013000B7010008B7010008B7010008B7010008BF
:10014000B7010008B7010008B70100083123000813
:10015000B7010008B7010008B7010008B70100089F
:10016000B7010008B7010008B7010008B70100088F
:10017000B7010008B7010008B7010008000000003F
:10018000B7010008B7010008DFF80CD000F08CF8C8
:1001900000480047F14900083077002006488047B2
:1001A00006480047FEE7FEE7FEE7FEE7FEE7FEE75C
:1001B000FEE7FEE7FEE7FEE7992600088901000852
:1001C0002DE9F05F0546002092469B46884606468C
:1001D000814640241BE0284641464746224600F01F
:1001E00053F853465A46C01A914110D31146184647
:1001F000224600F03AF82D1A67EB01084F462246D6
:100200000120002100F031F817EB00094E41201EBB
:10021000A4F10104DFDC484631462A464346BDE8E6
:10022000F09F40EA01039B0703D009E008C9121FB1
:1002300008C0042AFAD203E011F8013B00F8013BA0
:10024000521EF9D27047D2B201E000F8012B491ECC
:10025000FBD270470022F6E710B513460A46044663
:100260001946FFF7F0FF204610BD202A04DB203A94
:1002700000FA02F1002070479140C2F1200320FAF9
:1002800003F3194390407047202A04DB203A21FAF7
:1002900002F00021704721FA02F3D040C2F120029F
:1002A0009140084319467047064C074D06E0E06848
:1002B00040F0010394E8070098471034AC42F6D3AD
:1002C000FFF766FFE85500080856000870B58C185F
:1002D00010F8015B15F0070301D110F8013B2A115A
:1002E00006D110F8012B03E010F8016B01F8016B47
:1002F0005B1EF9D12B0705D40023521E0DD401F843
:10030000013BFAE710F8013BCB1A921C03E013F80B
:10031000015B01F8015B521EF9D5A142D8D3002040
:1003200070BD0000464910B54A6822F440324A6068
:100330004A6843681A434A6001684A6822F4807236
:100340004A6001684A68036942EA03224A60016818
:100350004A6822F040724A6001684A6883681A431A
:100360004A6001688A6822F400628A6001688A68CB
:10037000C3681A438A60816A6FF07062D142016873
:100380008A6822F070628A6001688A680CD0836A89
:100390001A438A6001688A6822F040528A600168C4
:1003A0008A68C36A1A4301E022F040528A600168F9
:1003B0008A6822F002028A6001688A68037E42EA43
:1003C00043028A6090F82010002901684A680FD023
:1003D00042F400624A6001684A6822F460424A605E
:1003E00001684A68174C436A04EB43331A4301E03F
:1003F00022F400624A600168CA6A22F47002CA628A
:100400000168CA6A838B104C04EB03531A43CA6217
:1004100001688A6822F400728A6001688A6890F82C
:10042000303042EA43228A6001688A6822F480629E
:100430008A6001688A68406942EA8020886010BD4D
:100440000023014000E0FFFF0000F0FFFEE7000096
:1004500010B5D0F8BC22044692F81834022B07D00D
:10046000032B05D0052B03D0062B01D0092B13D16C
:10047000022082F81804002382F8103482F8113424
:1004800082F8123482F8133482F8140482F8153496
:10049000C2F80034C2F804340848407DC00607D5CD
:1004A000204603F0DCF92046BDE8104003F07CB89C
:1004B0004888BDE8104000F031BB00002801002052
:1004C00030B40B46D0F8BC12DC8891F818248CB1FB
:1004D000022A01D0052A11D15A88C1F80024DA88ED
:1004E0000323C1F8042481F8183481F8143430BC93
:1004F00002F04DBB052A05D0022A03D030BC1946B4
:1005000002F03ABB012081F81904062281F8182470
:10051000002081F8110481F8120481F8130481F895
:10052000142430BC7047000070B505460021D5E9A1
:10053000AF4094F81824032A02D0062A42D125E0BD
:10054000D4F8042402B3042284F8182484F8111483
:1005500084F8121484F8131484F81424D4F80014C2
:1005600011B92178412908D0D4F80834866904F5F6
:10057000826201211846B04724E0D4F8083404F51B
:10058000826200218669F5E7052011E094F81904DC
:10059000012801D038B115E0072084F818040122A1
:1005A00084F8112408E00B48007D40070AD502209A
:1005B00084F8180484F8111484F8121484F81314BD
:1005C00084F8140404F582612846BDE870400622D0
:1005D00002F0F7BA2801002010B5D0F8BC12164B73
:1005E000002281F819241B7D5B070BD5062081F8BA
:1005F000180481F8112481F8122481F8132481F859
:10060000140410BD082381F8183481F8112481F8EE
:10061000122481F8132481F8143403F020F9BFF375
:100620004F8F06480168064A01F4E06111430160FA
:10063000BFF34F8F00BFFDE7280100200CED00E065
:100640000400FA0570B505460B46D5E9AF46C988E2
:10065000002099B394F81814022906D0092904D06F
:10066000C4F80404C4F8000447E05988C4F800142E
:10067000DA88C4F80424E9B1012933D9092384F8BC
:10068000183484F8110484F8120484F8130484F8EC
:1006900014348802D4F80814A0F500600844736983
:1006A00021469847D4F8042401462846BDE8704006
:1006B00002F087BA032A02D9022101E023E00921CE
:1006C00084F8181484F8110484F8120484F81304CC
:1006D00084F814142070212060704120A07003223F
:1006E0002146E2E70F2184F8181484F8110484F8F5
:1006F000120484F8130484F814142846BDE87040EA
:10070000194602F039BA022184F8181484F8110449
:1007100084F8120484F8130484F8141470BD70472C
:100720007047000078B50024009490F83C20012A1E
:1007300019D0012280F83C200A6807230568092A9D
:1007400013D9EE680A3A02EB420293409E43EE60F0
:100750000B788A680A3B03EB43039A400368DD6821
:100760002A43DA6010E0022078BD2E6902EB4202D3
:1007700093409E432E610B788A6803EB43039A40B3
:1007800003681D692A431A614A681F23072A13D286
:1007900005686E6B521E02EB820293409E436E63AD
:1007A0000B790A885B1E92B203EB83039A400368BD
:1007B0005D6B2A435A6327E005680D2A12D22E6B1F
:1007C000D21F02EB820293409E432E630B790A886C
:1007D000DB1F92B203EB83039A4003681D6B2A432D
:1007E0001A6311E0EE6A0D3A02EB820293409E43D7
:1007F000EE620B790A880D3B92B203EB83039A40B9
:100800000368DD6A2A43DA62164B0568144A9D4282
:1008100006D10D68122D03D1556845F48005556049
:1008200005689D4218D10B68102B01D0112B13D1F4
:10083000536843F400035360096810290CD10A4936
:100840000A4A0968B1FBF2F101EB8101490000E0BD
:10085000491E00910029FBD180F83C40002078BD62
:100860000023014000200140E800002040420F002A
:100870000068C06C704770B504004FF0000503D0ED
:10088000206C002610B107E0012070BD204600F06A
:100890001DF8666484F83C60206CC00610D4206C9F
:1008A00020F4885040F0020020642046FFF73AFD13
:1008B0006664206C20F0020040F00100206400E03B
:1008C000012584F83C60284670BD000010B586B054
:1008D000044614216846FFF7BDFC11492068884290
:1008E0001CD110480021026842F480720260006846
:1008F00000F4807005900B481438026842F0020240
:100900000260006800F002000590012000900320C2
:10091000CDE901016946044800F012F906B010BDA6
:100920000020014044380240000402402DE9F0411B
:10093000044600680D4681684FF0000749050BD555
:100940008068C00508D5206C40F02000206484F841
:100950003C700120BDE8F08100F0D8F906460FE0B8
:10096000681C0DD025B100F0D1F9801BA84207D931
:10097000206C40F00400206484F83C700320E9E718
:10098000206800688007EBD521686FF012000860CE
:10099000206C40F4007020642068816811F0405F92
:1009A00013D1217E89B9C16A11F4700F02D0806819
:1009B00040050AD4206C20F480702064206CC004B0
:1009C00003D4206C40F0010020640020C2E7000046
:1009D00018B50021009190F83C20012A07D001228F
:1009E00080F83C2002689368DB0702D011E0022007
:1009F00018BD936843F0010393602A4A2A4B12689A
:100A0000B2FBF3F202EB420200E0521E0092002A17
:100A1000FBD102689368DB0741D0036C40F20164AC
:100A2000A34343F48073036453685B0505D5036CEB
:100A300023F4005343F480530364036CDB0404D5B4
:100A4000436C23F00603436400E0416480F83C10EB
:100A500016496FF02203136049680068CA061449FA
:100A600006D088421BD1816811F0405F13D016E098
:100A70008842F8D00F4A904203D1D1F80423D2061D
:100A8000F1D00D4A90420AD1D1F8041301F01F01B0
:100A90001029E8D303E0816841F0804181600020A3
:100AA00018BD0000E800002040420F000023014074
:100AB00000200140002101400022014090F83C103C
:100AC00001290CD0012180F83C1001688A6822F0CD
:100AD00001028A6001688968C90702D007E0022024
:100AE0007047016C21F4885141F00101016400213B
:100AF00080F83C100846704790F83510022903D062
:100B00008021416501207047052180F8351000687B
:100B1000016821F0010101600020704770B50446B2
:100B200000F0F4F80546601C02D004480078044444
:100B300000F0ECF8401BA042FAD370BDDC000020AE
:100B40002DE9F84F00224FF0010803254FF00F0E5A
:100B50000B6808FA02F42340A3426ED14E68012EBE
:100B600005D0022E03D0112E01D0122E12D186688C
:100B70004FEA420C05FA0CF7BE43CF6807FA0CF7B0
:100B8000374387604668A6430C79C4F30014944049
:100B900034434460C668570005FA07FC8C6826EAAF
:100BA0000C06BC403443C4604C68022C01D0122CAB
:100BB00013D1D40800EB8404A346D4F82090540742
:100BC0004FEAD46A0EFA0AF629EA06090E6906FA0D
:100BD0000AF646EA0906CBF8206006680C7926EA90
:100BE0000C0604F00304BC40344304604C68E40089
:100BF00065D5364C266846F480462660246822F087
:100C0000030604F480440094314C3444A446D4F8E0
:100C100008489607370F0EFA07F6B4432D4EB04238
:100C200001D1002624E02C4EB04201D101261FE064
:100C30002A4EB04202D102261AE040E0284EB042CD
:100C400001D1032614E0274EB04201D104260FE063
:100C5000254EB04201D105260AE0244EB04201D112
:100C6000062605E0224EB04201D1072600E0082604
:100C7000BE402643CCF808681E4E34684F689C433B
:100C8000FF0300D51C4334601A4C241D26684F68AE
:100C90009E43BF0300D51E432660164E08363468B7
:100CA0004F689C43FF0200D51C433460114E0C3644
:100CB00034684F689C43BF0200D51C433460521C0B
:100CC000102AFFF445AFBDE8F88F00004438024019
:100CD00000300140000002400004024000080240D1
:100CE000000C0240001002400014024000180240B4
:100CF000001C0240003C01400069084000D0012077
:100D000070470AB1816170470904FBE701488068B8
:100D100070470000DC00002002488168027811441E
:100D200081607047DC0000200B4810B5016841F479
:100D300000710160016841F480610160016841F463
:100D400080710160032000F06FF8002000F006F8C9
:100D500000F024F8002010BD003C024070B50D4D9D
:100D600004464FF47A712878B1FBF0F00A4909681B
:100D7000B1FBF0F000F082FF48B9102C07D200223E
:100D80002146501E00F030F800206C6070BD01203C
:100D900070BD0000DC000020E80000200A4808B513
:100DA000016841F480410160006800F480400090D7
:100DB0000548001F016841F080510160006800F0A3
:100DC0008050009008BD000044380240002809DB34
:100DD00000F01F02012191404009800000F1E02055
:100DE000C0F8001170470000F0B40E4B1B680C46B1
:100DF000C3F30223C3F10705042D00D90425191DEF
:100E0000072901D2002300E0DB1E012606FA05F1C6
:100E1000491E214099409E40761E16403143F0BC49
:100E200003F0F7B90CED00E0064900F0070208688E
:100E30004FF6FF03184040EA0220034A10430860BF
:100E4000704700000CED00E00000FA0570470068F4
:100E5000416200207047F0B50368586A39B19C6A56
:100E60004FF4827600EB144400204D1E0AE040EA65
:100E7000024098620FE006EB8007DF59401C04EB4C
:100E80001744C0B2A842F6D344EA02404FF480723D
:100E900002EB810158500020F0BDD0F8040402F0AC
:100EA000E5B9C1EBC10200EB8202D0F80404926CF8
:100EB00002F050B9C1EBC10200EB8202D0F8040489
:100EC000D2F8082202F09BB9D0F8040402F0D0B99D
:100ED00070B5044601F00F006268904201D901200C
:100EE00070BD0B0601F00F01C1EBC10104EB8101E4
:100EF0004FF001024FF0000503D581F83D203C3151
:100F000003E081F8FD5101F5FE718D70087094F8D1
:100F1000BC03012808D084F8BC23206802F0E8FE56
:100F200084F8BC53002070BD022070BD2DE9F04153
:100F300004460F0601F00F00C0EBC00104EB810175
:100F40004FF001064FF0000503D581F83D603C31BC
:100F500003E081F8FD5101F5FE7108708A60CB70E5
:100F60004A7802B1C880022B00D10D7194F8BC03FD
:100F7000012809D084F8BC63206802F085FC28466B
:100F800084F8BC53BDE8F0810220FBE770B50C4645
:100F900001F00F05C5EBC50100EB8101C1F810326E
:100FA000C1F808220023C1F8143281F8FD3181F81C
:100FB000FC51036901F5FE71012B00D10A61220782
:100FC000027C006803D002F0EBFE002070BD02F04E
:100FD000D7FDFAE770B504460D4601F00F006168D1
:100FE000884201D9012070BD29064FF000064FF05C
:100FF000010207D5C0EBC00104EB810181F83D205F
:101000003C3107E0C5EBC50104EB810181F8FD61CE
:1010100001F5FE718A70087094F8BC03012807D0AE
:1010200084F8BC23206802F08FFE280702D007E076
:10103000022070BD217C04F57172206802F02CFE44
:1010400084F8BC63002070BD70B50C4601F00F053C
:10105000C5EBC50100EB81010B658A6400234B657C
:10106000012381F83D3001F83C5F0369012B00D179
:101070000A612207027C006803D002F091FE002082
:1010800070BD02F07DFDFAE72DE9FC5F05680446BE
:10109000284602F0AEFF00287ED1206802F0D5FF7E
:1010A000002879D0206802F0D0FF800704D521689D
:1010B000486900F002004861206802F0C6FFC106DE
:1010C00004F57170009034D52068816921F0100119
:1010D00081612F6A07F00F00C0EBC00004EB8006AF
:1010E000C7F3434006F5FE76022802D0062811D049
:1010F0001AE047F6F070074216D0C7F30A121746F7
:101100002846F16802F0A5FFF0683844F060B06945
:10111000384408E008222846009902F09AFFB06996
:10112000C7F30A110844B0612068816941F01001D9
:101130008161206802F089FF00034FF0010A4FF03F
:10114000080B5BD50026206802F05EFF0746DFF83B
:10115000689351E0F8074DD0F1B2206802F06DFFBE
:101160008046C00707D005EB4611C1F808AB3146F1
:10117000204601F0E3F85FEA087022D505EB46113E
:10118000C1F808BB2068016C00EB46100191D0F853
:10119000082B494507D900E08BE1110403D54FF432
:1011A0000041C0F8081B204600F076FA0198484537
:1011B00007D92069012804D120680121009A02F092
:1011C0006BFD5FEAC86004D505EB46111020C1F83D
:1011D000080B5FEA886004D505EB46112020C1F8B2
:1011E000080B5FEA884005D505EB46104FF4005127
:1011F000C0F8081B7F08761C002FABD1206802F0D6
:1012000024FF40034FF000095CD5206802F0F5FE92
:101210000746002654E0F80750D0F1B2206802F0EB
:10122000FAFE8046C00723D006F00F020AFA02F049
:10123000D5F834288243C5F8342805EB4610C0F8A9
:1012400008A9206901280FD1C6EBC60004EB800075
:10125000D0E911211144816436B9206D20B920688C
:101260000121009A02F018FDF1B22046FFF719FEA5
:101270005FEA087003D505EB4611C1F808B95FEACB
:10128000C86004D505EB46111020C1F808095FEAD3
:10129000486004D505EB46114020C1F808095FEA13
:1012A000887004D505EB46110220C1F808095FEAF1
:1012B000086003D53146204601F0A6F87F08761C69
:1012C000002FA8D1206802F0C0FE002811DAD5F85E
:1012D000040820F00100C5F8040894F8F40301287C
:1012E00029D0204600F0BCF92068416901F0004196
:1012F0004161206802F0A9FE00050BD5D5F8080869
:10130000C00702D0204600F00DFA2068416901F4C0
:1013100000614161206802F098FEC00468D5D5F8EC
:10132000040820F00100C5F804081021206802F02C
:1013300041FE002127E084F8F49300212046FFF7C6
:1013400085FDD1E705EB41104FF67F32C0F8082943
:10135000D0F8003923F40013C0F80039D0F8003970
:1013600043F00063C0F80039C0F8082BD0F8002B18
:1013700022F40012C0F8002BD0F8002B42F00062DB
:10138000C0F8002B491C60688842DBD8D5F81C08DF
:1013900040F00110C5F81C08206B60B1D5F8840836
:1013A00040F00B00C5F88408D5F8440840F00B0065
:1013B000C5F844080CE0D5F8141842F22B0001439C
:1013C000C5F81418D5F8100840F00B00C5F810083F
:1013D000D5F8000820F4FE60C5F80008217C2068DC
:1013E000009A02F059FC2068416901F48051416182
:1013F000206802F02AFE800415D5206802F084FAE5
:10140000206802F0E9FDE06000F03EFA0146227B30
:10141000206802F055FE204600F00CF92068416972
:1014200001F400514161206802F00FFE000707D56A
:10143000204600F019F92068416901F00801416176
:10144000206802F002FEC00208D50021204600F00C
:1014500035F82068416901F480114161206802F08B
:10146000F4FD800208D50021204600F02BF820680A
:10147000416901F400114161206802F0E6FD40007D
:1014800007D52046FFF709FD2068416901F080413A
:101490004161206802F0D9FD40070AD520684568FF
:1014A000680702D52046FFF70FFD206841682943F1
:1014B0004160BDE8FC9F00000A30544FD0F804049E
:1014C00001F022BFD0F8040401F020BF2DE9F04163
:1014D0008AB0040005D094F8BD032668002520B129
:1014E00008E001200AB0BDE8F08184F8BC53204632
:1014F00000F05EF8032084F8BD03F06BC00500D453
:101500002561206802F036FB04F11001282288468C
:101510006846FEF786FE94E80F0002F003FA022602
:10152000C8BB0021206802F0A2FD002001270EE0C8
:10153000C0EBC00104EB810181F83D7001F83C0F64
:10154000C880CD708D60CD60401CC0B24D616168B7
:101550008142EDD8002011E0C0EBC00104EB810115
:1015600081F8FD5181F8FC0181F8FF51C1F8045266
:10157000C1F80852401CC0B2C1F8105261688142E3
:10158000EAD8282241466846FEF74BFE94E80F0051
:1015900002F036FA10B184F8BD63A2E784F838503F
:1015A00084F8BD73206802F01FFA00209AE700005B
:1015B00010B586B0044614216846FEF74BFE20683D
:1015C000B0F1A04F2FD119480021026842F001026A
:1015D0000260006800F0010005904FF4C0500090D8
:1015E0000220CDE90101032003900A2004906946FE
:1015F0000F48FFF7A5FA0D48001D016841F0800172
:1016000001600A481430016841F4804101600068BB
:10161000002200F48040059011464320FFF7E4FBD0
:101620004320FFF7D3FB06B010BD00003038024066
:101630000000024070B50446C068012570B1022860
:1016400001D0FFF76DF82946D4F8040401F0B4FE88
:10165000D4F80404BDE8704001F06FBE0025F2E745
:10166000D0F8040401F092BED0F8040401F098BE52
:1016700010B5044690F8BC0301280BD0012084F873
:10168000BC0384F83810206802F008FD002084F8BC
:10169000BC0310BD022010BDD0F8042400F5717108
:1016A000104601F095BE10B50446006894F8BC13CE
:1016B000012906D0012184F8BC13A16A012902D0B6
:1016C00008E0022010BDA169012903D0816B41F41B
:1016D00080318163206802F07BF9206802F054FCBD
:1016E000002084F8BC0310BD70B5044690F8BC031C
:1016F00001280ED0012084F8BC03206802F03AFAD9
:10170000206802F051FD002528B184F8BC53012067
:1017100070BD022070BD206802F066F984F8BC53E9
:10172000002070BD10B50446D0F8040401F09BFE03
:101730002068D0F8001E41F00101C0F8001E206AA8
:10174000002804D00248016841F00601016010BD84
:1017500010ED00E02DE9F0470E46050065D0DFF8FA
:101760001481D8F80000F7B200F00F00B04207D2A1
:1017700088F80070D8F8000000F00F00B04254D193
:1017800028683D4C810712D5400703D5206840F4F6
:10179000E05020602878000703D5206840F46040BE
:1017A00020602068A96820F0F000084320602878B5
:1017B000C0072DD0304968680839012812D00228A6
:1017C00013D0032811D00968890700292DDA216870
:1017D00021F0030101432160FFF798FA814641F2AD
:1017E000883A0EE009688903EFE709688901ECE7A8
:1017F000FFF78CFAA0EB0901514502D90320BDE89F
:10180000F0872068696800F00C00B0EB810FEFD121
:10181000D8F80010404601F00F01B14207D9077017
:10182000006800F00F00B04201D00120E7E72878FF
:10183000400705D52068E96820F4E050084320609F
:101840002878000706D52068296920F4604040EA1E
:10185000C100206000F03EF82168084AC1F303117E
:10186000515CC8400649086006480068FFF776FAF0
:101870000020C4E7003C02400838024070550008D0
:10188000E8000020E00000200148006870470000E8
:10189000E80000200448054900680968044AC1F3CB
:1018A0008221515CC8407047E8000020083802409F
:1018B000805500080448054900680968044AC1F3D6
:1018C0004231515CC8407047E800002008380240AF
:1018D00080550008104810B5006810F00C010F4842
:1018E00018D0042916D0082914D10B4C241F2168C4
:1018F00001F03F02216821680023C1F38811A1FB98
:101900000001FEF75DFC2168C1F30141491C49005B
:10191000B0FBF1F010BD0000083802400024F400D4
:101920002DE9F84F04006ED02078DFF83C93C00713
:10193000A9F104054AD009F104000168C1F381014D
:10194000012908D00068C0F3810002280AD1D9F823
:101950000000400206D52868800337D5606800285B
:10196000E1D033E06068B0F5803F10D0B0F5A02F33
:10197000286810D020F480302860286820F4802067
:1019800028606068A8B1FFF7C1F906460DE0286835
:1019900040F48030F4E740F480202860F7E700BF8F
:1019A000FFF7B4F9801B642873D828688003F7D543
:1019B0000CE0FFF7ABF9064605E000BFFFF7A6F91C
:1019C000801B6428F0D828688003F7D42078DFF8DB
:1019D0009C8280074FF0000A3ED5A348001D016895
:1019E00011F00C0F08D00068C0F3810002280BD161
:1019F000D9F80000400207D42868800716D5E068AF
:101A0000012800D112E02BE1E068B8B10120C8F84C
:101A10000000FFF77BF9064605E000BFFFF776F907
:101A2000801B0228C0D828688007F7D5286821695C
:101A300020F0F80040EAC10028600DE0C8F800A0DE
:101A4000FFF764F9064604E0FFF760F9801B0228FF
:101A50001FD828688007F7D42078000722D5824E47
:101A600083486169703671B101210160FFF74EF959
:101A7000074604E0FFF74AF9C01B022809D830687E
:101A80008007F7D50EE0C0F800A0FFF73FF9074642
:101A900005E082E0FFF73AF9C01B02287DD83068E4
:101AA0008007F7D42078400768D5DFF8BCB100275D
:101AB0000BF13C0BDBF80000C0000BD4DBF800108E
:101AC00041F08051CBF80010DBF80000012700F056
:101AD00080500090674E3068C00510D4306840F4E4
:101AE00080703060FFF712F9009005E0FFF70EF903
:101AF0000099401A022850D83068C005F6D55A4ED1
:101B0000A0686C3601280FD00528306810D020F06E
:101B100001003060306820F004003060A068B8B187
:101B2000FFF7F4F800900FE0306840F00100F4E7B0
:101B300040F004003060F7E7FFF7E8F80099411A39
:101B400041F28830814266D830688007F4D50EE0D3
:101B5000FFF7DCF8009007E0FFF7D8F80099411A8A
:101B600041F28830814256D830688007F4D42FB1D2
:101B7000DBF8001021F08051CBF80010A069C8B349
:101B80003949091D0968C1F3810102294AD0022897
:101B9000504607D0C8F8600000E03CE0FFF7B6F818
:101BA00004463BE04746C8F86000FFF7AFF806463A
:101BB00005E000BFFFF7AAF8801B02282BD8286891
:101BC0008001F7D4D4E907010843A16A2A4A4908E9
:101BD00002EB0141626A41EA8211084394F82C1039
:101BE00040EA0161C9F8001001203866FFF78EF85D
:101BF000044606E036E000BFFFF788F8001B022825
:101C000009D828688001F7D52CE000BFFFF77EF8DF
:101C1000001B022802D90320BDE8F88F2868800144
:101C2000F4D41FE00128F7D0D9F80000E26900F4ED
:101C30008001914214D1226A00F03F0191420FD1FC
:101C400047F6C071626A0140914209D1A26A00F46C
:101C50004031914204D1E16A00F07060884201D0C5
:101C60000120D9E70020D7E70438024000004742AE
:101C7000800E4742007000400000FFFF10B5401E7C
:101C8000B0F1807F01D3012010BD4FF0E0246061EE
:101C90000F21601702F0BDFA0020A061072020612B
:101CA000002010BD10B5040003D094F83D0010B121
:101CB00007E0012010BD002084F83C00204600F021
:101CC0000DF8022084F83D00211D206800F0F2FC90
:101CD000012084F83D00002010BD000008B5006818
:101CE0000649884208D10648016841F04001016078
:101CF000006800F04000009008BD0000001800409F
:101D00004038024070B5044690F83C00012817D0D6
:101D1000012584F83C50022084F83D002068826848
:101D200022F0770222F47F4282600868502830D087
:101D30000DDC20284DD005DC98B310283BD148E0BD
:101D4000022070BD302844D0402834D139E06028CA
:101D500028D0702806D0B0F5805F2CD0B0F5005F99
:101D600029D10AE0CB68D1E90121206800F006FD05
:101D70002068816841F0770109E0CB68D1E9012151
:101D8000206800F0FBFC2068816841F4804181609C
:101D900011E0CA684968206800F002FD50212068FF
:101DA00007E016E0CA684968206800F00AFD602173
:101DB000206800F0EDFC84F83D50002084F83C00E1
:101DC00070BDCA684968206800F0EAFC40212068BC
:101DD000EFE7226801461046EBE7704770B50268EE
:101DE00004461068D168536910F00F0F52D003F009
:101DF000010501F490762E435FD0C20705D0CA05D5
:101E000003D5E26B42F00102E263420705D5DA072F
:101E100003D0E26B42F00202E263820705D5DA07E3
:101E200003D0E26B42F00402E263020707D501F03F
:101E300020022A4303D0E26B42F00802E263E26B25
:101E4000002A33D0800604D5880602D5204600F04B
:101E500031FD20684069E16BC0F38010090700D4B0
:101E600028B3204600F018FD2068416949061AD5BC
:101E7000416921F040014161606BA0B11B490165DE
:101E8000606BFEF739FE002810D0606B016DBDE875
:101E900070400847830610D58B060ED52046BDE856
:101EA000704000F007BD2046FFF797FF70BD204649
:101EB000FFF793FF0020E06370BD030606D50B0615
:101EC00004D52046BDE8704000F0D4BD4006F3D5EF
:101ED0004806F1D5D168204621F04001D16020218B
:101EE00084F8391000F01FF970BD0000892800083F
:101EF00070B5040004D094F83900002510B106E054
:101F0000012070BD84F83850204600F023F82420CA
:101F100084F839002068C16821F40051C16020466E
:101F200000F014FD2068016921F4904101612068EE
:101F3000416921F02A0141612068C16841F40051E2
:101F4000C160E563202084F8390084F83A0000205D
:101F500070BD0000F0B587B0044614216846FEF756
:101F600079F92A49284F26680025284A1039032381
:101F700002242748BE4220D1156845F4002515608B
:101F8000126802F4002205920A6842F001020A6017
:101F9000096801F0010105910121CDE90213CDE9A4
:101FA0000034082104916946FEF7CAFD002211465B
:101FB0003420FEF719FF342021E0164FBE4220D115
:101FC000166846F400361660126802F40032059274
:101FD0000A6842F001020A60096801F001010591F6
:101FE0000C218DE832000721CDE903316946FEF767
:101FF000A7FD002211462620FEF7F6FE2620FEF75A
:10200000E5FE07B0F0BD0000004C00404038024043
:10201000000002400044004090F83A30202B22D1CA
:10202000F9B1F2B190F83830012B1CD08162828571
:10203000C2850021C163222280F83A2080F838103E
:102040000168CA6842F48072CA6001684A6942F055
:1020500001024A610068C16841F02001C1600020AE
:102060007047012070470220704770472DE9F84300
:10207000044690F839001F4616460D46202850D1D8
:10208000B5B1AEB194F8380001284AD0012084F8E7
:1020900038004FF00008C4F83C80212084F8390053
:1020A000FEF734FEA6848146E68484F8388026E074
:1020B0000120BDE8F883E08C401EE084A0684B4618
:1020C000B0F5805F4FF000024FF08001204600978E
:1020D00003D000F000FDE8B90DE000F0FCFCC8B949
:1020E00028882168C0F308004860206908B16D1C89
:1020F00005E0AD1C03E0216815F8010B4860E08C99
:102100000028D8D14B46002240212046009700F0FD
:10211000E2FC08B10320CCE7202084F8390000203D
:10212000C7E70220C5E77047FEE70000F0B50023CF
:102130000A24302537261F4611E000BFB4EB107F7C
:1021400002D905EB107C01E006EB107C01F813C00E
:1021500001EB430C00015B1C8CF80170DBB2934275
:10216000ECD3F0BD0020704700207047002070477E
:102170000020704700207047002070477FB5002482
:1021800012480094019402940F49039401604FF4A3
:102190008031C0E901140461047680F820400C49C4
:1021A000C0E90A140125C561C46080F8304045616A
:1021B000FEF761FB0820CDE900056946029403485B
:1021C000FEF7B0FA7FBD0000002001404C0D00205A
:1021D0000100000F2DE9F04786B014216846FEF794
:1021E00039F838480024016841F0040101600168B1
:1021F00001F004010591016841F08001016001686E
:1022000001F080010591016841F001010160016860
:1022100001F001010591016841F0020101600168CE
:1022200001F002010591016841F0080101600068B8
:10223000DFF8948000F008004FF4705505900022FC
:1022400029464046FEF75DFDDFF880904FF47C762E
:10225000002231464846FEF754FDDFF874A041F6EF
:10226000FF77002239465046FEF74BFD00950125C9
:10227000CDE90154694640460394FEF761FCF8102D
:10228000CDE90004694640460294FEF759FC0096E9
:10229000CDE90154694648460394FEF751FCB0016C
:1022A000CDE9000469460B480294FEF749FC00970B
:1022B000CDE90154694650460394FEF741FC06B04F
:1022C000BDE8F087303802400008024000000240BC
:1022D000000C02400004024010B500220F491048D3
:1022E00000F015FF08B1FEF71BFA0E490C4801F08B
:1022F000E2F808B1FEF714FA0B49094800F035FD81
:1023000008B1FEF70DFA064801F04EF9002803D097
:10231000BDE81040FEF704BA10BD000070000020B8
:10232000540E0020F0000020C0000020FEE770479F
:102330000148FEF7A9BE0000241100202DE9F0415C
:1023400003680D4604461E6C03EB4511D1F8080BDB
:10235000D4F810E04FF400474FF0200C04F57172F0
:10236000BEF1010F09D0DFF898E0764539D10204BB
:1023700032D500BFC1F8087B3FE0224B5FEA007E08
:1023800004D59E4239D90004F4D436E05FEA806E69
:1023900002D5C1F808CB30E010F0280F2DD19E42B5
:1023A00001D90004E6D4C5EBC50004EB8000D1F8E8
:1023B000101BD0F80432C1F31201591AC0F81412DC
:1023C000D0F808121944C0F8081295B9D4F81002D0
:1023D00078B9012120680AE080060AD5C1F808CB47
:1023E00007E035B9D4F8100218B90021184601F0F9
:1023F00053FCE9B22046FEF75DFD0020BDE8F08108
:102400000A31544F0A30544F2DE9F84F0E46C1EBB4
:10241000C60100EB810481460568D4E914103C3400
:10242000884202D90120BDE8F88F081AA1688142CC
:1024300000D20846C01C870805EB46181BE000BF09
:10244000A0EB010AA068504500D282460AF10300C1
:10245000870899F8100000901FFA8AF3F2B2284614
:10246000E16801F0C3FEE16801EB0A00E060A169E8
:1024700001EB0A00A061D8F8180980B2B84205D370
:10248000D4E90501814201D20028D9D1D4E905015E
:10249000884208D806F00F0101208840D5F834188A
:1024A0008143C5F834180020BDE7704770470178B4
:1024B000407841EA0020704770B5344D044601224F
:1024C00011462846FEF71DFC012202212846FEF790
:1024D00018FC40F21A40FEF721FB00220221284698
:1024E000FEF70FFC4B20FEF719FB012202212846C4
:1024F000FEF707FC2720FEF711FB002202212846E9
:10250000FEF7FFFB4B20FEF709FB012202212846C4
:10251000FEF7F7FB2720FEF701FB002202212846E9
:10252000FEF7EFFB4B20FEF7F9FA012202212846C5
:10253000FEF7E7FB2720FEF7F1FA002202212846EA
:10254000FEF7DFFB641E04EB8406002410E04B2042
:10255000FEF7E4FA012202212846FEF7D2FB2720EB
:10256000FEF7DCFA002202212846FEF7CAFB641CB3
:10257000B442ECDB002201212846FEF7C2FBBDE895
:10258000704041F27070FEF7C9BA0000000C0240C2
:102590002DE9F041064641F288373846FEF7BEFA8B
:1025A0001A4D012204212846FEF7ABFB1420FEF74A
:1025B000B5FA012208212846FEF7A3FB8C20FEF77E
:1025C000ADFA002208212846FEF79BFB012410E00B
:1025D0000F20FEF7A3FA012208212846FEF791FBFF
:1025E0000520FEF79BFA002208212846FEF789FB0A
:1025F000641CB442ECDB002204212846FEF781FB78
:102600003846BDE8F041FEF789BA0000000C0240F0
:10261000FEF782BB30B593B030216846FDF71AFE55
:1026200014210CA8FDF716FE19480025016841F099
:1026300080510160006800F08050119015480168D9
:1026400041F4804101600068022400F48040119050
:1026500001200090000401908001CDE9064008208F
:102660000890A820CDE9090407200B906846FFF7E1
:1026700057F90CA90F2081E831004FF4A0500F90BA
:10268000E002109005210CA8FFF764F813B030BDEC
:1026900040380240007000400548016841F4700174
:1026A000016003494FF00060803908607047000006
:1026B00088ED00E0F0B50268254C264D264E274FE8
:1026C000274B4FF0804CA04209D0604507D0A8426C
:1026D00005D0B04203D0B84201D0984204D122F0D4
:1026E000700E4A6842EA0E02A0421BD0604519D023
:1026F000A84217D0B04215D0B84213D0984211D09A
:10270000184DA8420ED0184DA8420BD0174DA84224
:1027100008D0174DA84205D0164DA84202D0164D3C
:10272000A84203D122F44075CA682A434D6922F0B9
:1027300080022A4302608A68C2620A688262A042FA
:1027400001D0984201D10969016301214161F0BDC5
:10275000000001400004004000080040000C004060
:102760000004014000400140004401400048014095
:1027700000180040001C00400020004010B5846894
:1027800042EA032224F47F440A432243826010BDBC
:10279000826822F070020A4342F0070181607047AC
:1027A00010B5036A046A24F001040462846924F009
:1027B000F00444EA021423F00A020A43846102622C
:1027C00010BD10B5036A23F0100303628369046A25
:1027D00023F4704343EA023224F0A00343EA0111D8
:1027E0008261016210BD000070B52048FFF7F6FA63
:1027F0001F480024012205781E4B1F49052D2DD2AC
:10280000DFE805F0030512161A00097807E00978D9
:102810000F2903D259700221017020E00470FF29B2
:102820001DD1197002701AE0097899700321F3E73D
:102830000978D9700421EFE7097819711D785E785D
:1028400035449E78DB7833442B440C4DDBB29942FF
:102850002B7001D10A4900E00A490A700470BDE8F2
:102860007040012204490148FFF7D6BBD40D002077
:102870006E000020630000206D0000206F0000202B
:10288000590000205A00002010B5806B0021C1853E
:10289000C184FFF7A2FA10BD0168CA6822F49072E1
:1028A000CA6001684A6922F001024A61202180F869
:1028B0003A10704710B590F83A10222901D0022042
:1028C00010BD8168B1F5805F11D0016900290168F0
:1028D0001FD0496801F07F03816A4A1C82620B7035
:1028E000C18D491E0904090CC18518D02BE002696D
:1028F000816A002A0268526805D0D2B20A80816AD1
:10290000491C8162ECE7C2F308020A80816A891CD3
:10291000F7E74A68816A4B1C83620A70E0E7016846
:10292000CA6822F02002CA600168CA6822F4807274
:10293000CA6001684A6922F001024A61202180F8D8
:102940003A10FFF792FB002010BD00002DE9F04186
:10295000044600680169E26821F4405111430161B5
:102960002169A068E269084361691143084321684D
:10297000CA6849F20C639A430243CA6020684169FD
:10298000A26921F4407111434161E069192764256E
:102990003226B0F5004F354A354920684FF000081F
:1029A00006D0884201D0904236D1FEF783FF35E051
:1029B000884201D0904202D1FEF77CFF01E0FEF791
:1029C00069FF61684A18A0FB070148EB0803FDF79F
:1029D000F7FB0146B0FBF5F00201B1FBF5F06FF03B
:1029E0001803584301EB800006EBC000B0FBF5F084
:1029F00000F0F80002EB4002B1FBF5F0584301EBA8
:102A0000800006EBC000B0FBF5F000F00700216885
:102A100010448860BDE8F081FEF73CFF61688B0FD1
:102A20008A00A0FB0701FDF7CBFB0146B0FBF5F0E8
:102A30006FF01802504301EB800006EB0010B0FB72
:102A4000F5F000F0F002B1FBF5F002EB0012B1FB83
:102A5000F5F06FF01803584301EB800006EB00100F
:102A6000B0FBF5F000F00F00D1E7000000140140CA
:102A70000010014090F83910212901D00220704740
:102A80008168B1F5805F016A0BD04A1C026202685E
:102A900009785160C18C491E0904090CC1840ED00B
:102AA00017E009880268C1F3080151600169002933
:102AB000016A02D0491C0162ECE7891CFBE701684E
:102AC000CA6822F08002CA600068C16841F0400113
:102AD000C160002070472DE9F041984617460E4628
:102AE0000446069D1DE0681C1BD02DB1FEF70EF9B3
:102AF000A0EB0800A84214D92068C16821F4D07165
:102B0000C1602068416921F001014161202084F801
:102B1000390084F83A00002084F838000320BDE82A
:102B2000F0812068006836EA000004D00020B84236
:102B3000D9D00020F3E70120F9E700000148FFF7B2
:102B40004DB90000140E002010B5D0F8B8220AB11B
:102B500052689047002010BD134610B50A46002168
:102B600000F0E2FB002010BD134610B50A4600211C
:102B700000F082FC002010BD10B50446802100F05A
:102B800057FC2046BDE81040002100F051BC10B5B4
:102B90000323C0F85821C0F89432C0F85C211346D2
:102BA0000A46002100F0C0FB002010BD10B5052131
:102BB0000023C0F894121A46194600F0B5FB002015
:102BC00010BD10B502238261C0F89432C261134671
:102BD0000A46002100F050FC002010BD10B5042171
:102BE0000023C0F894121A46194600F045FC002054
:102BF00010BD70B5D0F8BC120446B9B10025C1F8BB
:102C000000540220C1F8045481F8180481F81054CB
:102C100081F81404D4F8C00204F52F74806880474A
:102C2000206801F0FDFC0020256070BD022070BD11
:102C3000002070477CB50246D2E9AF4094F81814E2
:102C4000042902D0072958D05AE0D4F800140025EE
:102C500079B1012931D98902D4F80824A1F500619C
:102C600011440369D4F804242046984728B303206C
:102C70007CBDD4F8041401291FD005290BD0C4F859
:102C800004540120ADF806008DF800506946104646
:102C9000FFF772FF11E02178212902D041291CD0D1
:102CA0000BE06078A17800EB0120E17800EB0140B7
:102CB000217900EB0160C4F80804C4F8045403202F
:102CC000C4F8005484F8180484F8115484F8125499
:102CD00084F8135484F8140412E06178A27801EBAC
:102CE0000221E27801EB0241227901EB0261C4F892
:102CF0000814C26808469047B8E71046FDF76CFC18
:102D000000207CBD1B210180004870472801002065
:102D10000A210180004870474401002010B5044694
:102D200040F21C4001F018FF0021D0B1C4F8BC02F1
:102D300000F580604FF00062C0E90221016041604F
:102D4000417602220276017441748174C174027565
:102D50004175D4F8C00240688047002800D00320A5
:102D600010BD0220C4F8BC1210BD19B1C0F8C012C9
:102D7000002070470320704700207047F8B50024FA
:102D80000D46D0F8BC12ADF800402F7826462246FA
:102D9000234617F0600760D0202F72D16E78022290
:102DA000072E6ED2DFE806F05504080C0F3236000D
:102DB0002946FDF785FB87E02946FDF743FC83E0C4
:102DC000FDF7B2FB80E091F818040A2811D00A2020
:102DD00081F818040E2281F8102481F8113481F84A
:102DE000123481F8133481F8140400BF81F81534CB
:102DF0006AE081F8182481F8103481F8113481F8E0
:102E0000123481F8133481F81424EFE7012201F51C
:102E1000836142E091F81804022807D0032805D006
:102E2000052803D0062801D009284DD181F818249F
:102E300081F8103481F8113481F8123481F8133498
:102E400081F8142481F81534C1F80034C1F8043431
:102E50003AE02946FDF7FCFA36E06B78062B11D0F4
:102E600003DC3BB1012B2BD12EE00A2B18D00B2B0E
:102E700026D11DE090F89C12032921D10222694637
:102E80000BE01DE069882123B3EB112F04D1EA8800
:102E9000104E092A00D909223146FFF792FE13E0AD
:102EA00090F89C22032A0BD1D1F80C140122F4E7EC
:102EB0006A8812F0FF0F03D190F89C32032B05D0E3
:102EC0002946FFF759FE03242046F8BDD0B2C1F8C9
:102ED0000C04F9E73A01002010B50A46024903A0A4
:102EE00000F0E5F8004810BD2C15002044465520A0
:102EF000436F6E66696700001220088000487047C3
:102F00009000002010B50A46024903A000F0CFF857
:102F1000004810BD2C15002044465520496E7465AC
:102F200072666163650000000420088000487047F5
:102F30008C00002010B50A46024903A000F0B7F843
:102F4000004810BD2C15002053544D6963726F6505
:102F50006C656374726F6E696373000010B50A4626
:102F6000024903A000F0A3F8004810BD2C15002072
:102F700053544D333220446F776E4C6F616420465A
:102F800069726D77617265205570646174650000C7
:102F900010B51A2008800A480168001D0468001D49
:102FA0000068081809D008220649FFF7BFF805494C
:102FB000042210312046FFF7B9F80248801E10BDE8
:102FC000107AFF1FA6000020F8B504460020ADF8D7
:102FD000000048880D46010A08295FD2DFE801F0A9
:102FE0005E0409175E5E3C45D4F8B412207C0A6882
:102FF00019E0207C02260028D4F8B80205D0C16A66
:10300000684688470146467039E0816AF8E7C0B2F1
:10301000062843D2DFE800F0030A1014181CD4F885
:10302000B402426805E0694690471CE0D4F8B40257
:10303000826892B3207CF6E7D4F8B402C268F8E75D
:10304000D4F8B4020269F4E7D4F8B4024269F0E7B4
:10305000D4F8B4028269ECE7207CF0B9D4F8B80265
:10306000416B68468847014609E0207CA8B9D4F83E
:10307000B802016B68468847014607204870EA8815
:103080008AB1BDF8000040B1824200D90246ADF8D5
:1030900000202046FFF795FDF8BDFFE729462046B2
:1030A000FFF76AFDF8E72046FFF798FDF4E770B5F3
:1030B000002300281ED00025044602E06D1CEDB25E
:1030C000641C2678002EF9D1022404EB45041480F8
:1030D0001278CA545B1C0322CA5400245B1C06E00D
:1030E000CA545B1CDAB28C54521CD3B2401C027816
:1030F000002AF5D170BD01004FF0000004D0012975
:1031000001D0022901D0032070470120704730B45C
:10311000A0B1D0F8B84200230CB1C0F8B832D0F852
:10312000CC420CB1C0F8CC3209B1C0F8B4120121C4
:1031300080F89C12027030BC00F0A6B830BC0320AE
:10314000704710B5D0F8C402FDF7C2FEBDE81040CC
:10315000FFF7D1BF70B51646044649B1D4F8B8029E
:1031600042691AB194F89C02032842D0032070BD32
:10317000D4F89412002504F11400022932D1D0E9C8
:1031800002318B4206D95A1A826031462046FFF737
:10319000EBFC0FE0994214D14068884211D3D4F877
:1031A000981288420DD2002211462046FFF7DCFC1F
:1031B000C4F8985200231A461946204600F0B4F885
:1031C00010E0D4F8B802C16829B194F89C02032831
:1031D00001D1204688478021204600F029F9204669
:1031E000FFF7E4FC94F8A002012806D184F8A0526D
:1031F00003E0204690470028B9D1002070BD10B5EB
:103200001346044649B1D4F8B80282691AB194F859
:103210009C02032824D0032010BDD4F8941204F596
:10322000AA70032920D1D0E9021291420AD98A1A40
:103230008260C068824200D3024619462046FFF7EA
:103240008BFC11E0D4F8B802016929B194F89C0212
:10325000032801D1204688472046FFF7BFFC03E042
:10326000204690470028D7D1002010BD002070478D
:1032700010B5012180F89C12D0F8B82212B1526822
:1032800001799047002010BD10B5017839BB154970
:103290000222C1F80404C0F8C4124FF0A040086034
:1032A000042048600020C1E90320C1E9062008622B
:1032B0004862C86208630846FEF708F908B1FDF7DE
:1032C0002FFA80210748FDF7C2FD40220021054862
:1032D000FDF7C1FD802201210248FDF7BCFD002061
:1032E00010BD0000241100200A0601F07F01D0F873
:1032F000C402C1EBC10100EB810002D590F83E0091
:10330000704790F8FE01704700207047002070471A
:1033100010B51C461346D0F8C4022246FDF706FE3F
:10332000BDE81040FFF7E7BE10B5D0F8C402FDF7C6
:103330002DFEBDE81040FFF7DEBE70B50125044646
:1033400080F89C520020C4F894026060C4F8A40283
:10335000D4F8BC0228B1D4F8B80200214268204653
:1033600090470022402311462046FFF7D1FF402618
:10337000A4F864513346002280212046C4F86061DD
:10338000FFF7C6FFA5840020266270BD90F89C124E
:10339000042903D190F89D1280F89C1200207047F8
:1033A00010B590F89C12032904D1D0F8B812C9695D
:1033B00001B18847002010BD01740020704710B58E
:1033C000D0F8C402FEF754F9BDE81040FFF793BEF1
:1033D00070B5044600F2AA20054600F056F8012018
:1033E000C4F89402B4F8B002C4F8980294F8AA029F
:1033F00010F01F010AD001290ED0022912D000F0CE
:1034000080012046BDE8704000F012B829462046F1
:10341000BDE8704000F0CAB829462046BDE87040BB
:1034200000F0F4B929462046BDE8704000F048B9E4
:1034300010B5D0F8C402FDF7CDFDBDE81040FFF790
:103440005ABE10B5D0F8C402FEF72DF9BDE8104001
:10345000FFF751BE10B5D0F8C402FEF745F9BDE83C
:103460001040FFF748BE90F89C1280F89D1204218E
:1034700080F89C120020704710B5D0F8C402FDF708
:10348000E3FDBDE81040FFF736BE70B5054611F804
:10349000010B2870087868704C1C2046FFF707F86D
:1034A0006880A41C2046FFF702F8A880A01CFEF745
:1034B000FEFFE88070BD38B504460020ADF800007E
:1034C00041B1C4F8B812896A68468847C4F8CC028A
:1034D000002038BD032038BD02460320D2F8B832A0
:1034E000002B02D01B681046184770472DE9F041A9
:1034F0000F462C4E8978002504463170012906D9E3
:1035000039462046FFF738FB0320BDE8F08194F8E8
:103510009C0202280CD003281DD039462046FFF714
:103520002BFB31782046FFF70FFB03252846ECE7FD
:1035300099B320466160FFF7CFFF050004D03946FC
:103540002046FFF719FBF1E72046FFF747FB032072
:1035500084F89C02EAE74FF00208C1B16068884233
:103560001BD0C1B22046FFF7EFFA317820466160E8
:10357000FFF7B2FF050010D039462046FFF7FCFAEE
:1035800021792046FFF7E0FA84F89C82CEE784F8A0
:103590009C8220466160FFF7D7FA2046FFF71EFBAA
:1035A000C4E70000EC000020FFF74BBF2DE9F0411D
:1035B0000A78002512F0600208D0202A01D0402AA3
:1035C00071D1D0F8B8229268904731E04B78002250
:1035D00001260A2B67D2DFE803F0415E66586608D1
:1035E00005662D29FFF7F0FC5FE004468888D8B90E
:1035F000C888C8B94888802816D200F07F0794F898
:103600009C02032810D084F89E7239462046FFF7AA
:10361000D6FE2046FFF7E2FA1FB1022084F89C0292
:1036200043E084F89C6240E020463CE0FFF75EFF08
:1036300005463AE0CB88012B35D190F89C32012B1E
:1036400004D0022B02D0032B2DD104E08260012292
:1036500000F1080116E00122011D13E090F89C2200
:10366000012A03D0022A01D0032A1CD1CA88022AC7
:1036700019D1C660D0F8A41209B10321C160022299
:1036800000F10C01FFF79DFA0FE0498801290CD1E8
:10369000C0F8A46211E090F89C32012B08D0022BF4
:1036A00006D0032B04D0FFF767FA2846BDE8F08167
:1036B00049880129F9D1C0F8A422FFF78FFAF4E76D
:1036C0002DE9F0410D46044628780027097910F0CD
:1036D00060000BD0202801D0402873D1D4F8B80264
:1036E000294682682046904707468CE06878D8B320
:1036F000012822D0032865D194F89C02022802D028
:1037000003287CD10BE0002979D0802977D020468E
:10371000FFF78EFE80212046FFF78AFE73E068885F
:1037200038B931B1802904D0E88810B92046FFF7B4
:103730007FFE2046FFF752FA65E094F89C020228CB
:10374000E1D003285BD16888D8BB480602D0204668
:10375000FFF7F7FC2046FFF741FAD4F8B8022946F4
:103760008268204690474EE0FFE794F89C020026CE
:10377000022802D0032842D111E009B180293ED1AC
:10378000080601F07F0000EB800004EB800101D50A
:10379000143101E001F5AA7102220E602BE0080647
:1037A00001F00F0000EB800004EB80000BD5808C53
:1037B00040B101F07F0000EB800004EB8005143580
:1037C0000CE020E01BE0B0F86401C0B101F07F0024
:1037D00000EB800004EB800505F5AA7541B1802956
:1037E00006D02046FFF780FD10B10120286000E0E0
:1037F0002E60022229462046FFF7E3F903E029461E
:103800002046FFF7B9F93846BDE8F08170B50646A5
:10381000087800240D4610F0600003D0202801D065
:10382000402817D196F89C02012803D0022801D025
:1038300003280FD1287901280CD8D6F8B80282685D
:10384000304690470446E888204306D13046FFF7CB
:10385000C5F902E03046FFF78FF9204670BD10B57C
:103860000446D0F8B80218B1426821792046904742
:10387000D4F8CC0210B10020C4F8CC022046BDE838
:103880001040FFF7E7BD000070B50A78012302F091
:103890000F054E78AB401B4CD0F81C58012E17D0AA
:1038A00045EA0343C0F81C3800EB4210D0F8002B67
:1038B00012040BD4D0F8002B0B89C978C3F30A0388
:1038C0001A4344EA81410A43C0F8002B002070BD2E
:1038D0009BB21D43C0F81C5800EB4210D0F80039D1
:1038E0001B04F3D4D0F800390D89C978C5F30A0553
:1038F00089042B4341EA82510B432343C0F800392A
:10390000E4E7000000800010D0F800196FF30A010E
:10391000C0F80019D0F8041841F48071C0F80418F8
:103920000020704770B5044606990A9E049D0D98C4
:10393000012916D0E06840F04000E060204600F029
:103940002BF8A16B1EB321F48031A163012D07D1A7
:10395000A16841F00601A160A16841F02001A160C9
:1039600070BDA16B21F48031A163E168094A114067
:10397000E160E16821F44011E160012803D1E068D1
:1039800040F48010E060204600F006F8DEE741F4E5
:103990008031DAE7BFFFBDFF01220C4902E0521C73
:1039A0008A420BD80369002BF9DA026942F001025E
:1039B0000261012204E0521C8A4201D903207047AF
:1039C0000369DB07F7D1002070470000400D0300BA
:1039D00010B5D0F8041821F00201C0F80418032033
:1039E000FDF79CF8002010BD10B5D0F8041841F088
:1039F0000201C0F804180320FDF790F8002010BD64
:103A00002DE9F04F00250E460446DDF82CC0DDF808
:103A100024B0109F2846294604EB8002C2F8041106
:103A2000401C0F28F8D32046C7B1806B20F4001249
:103A3000A263A06B40F40022A26308468846C4F843
:103A4000000ED4F800182046C4F80018BCF1010F8D
:103A500016D0D0F8001841F0030116E0D0F80408A1
:103A600040F00202C4F80428A06B40F40012A263E4
:103A7000A06B20F40022A263A06B20F48022DBE77D
:103A8000D0F800180BB141F00101C0F80018102166
:103A900000F090FA00B10125204600F07BFA00B159
:103AA00001254046C4F81088C4F81488C4F81C885E
:103AB00000214FF000694FF0904A4FF67F3314E039
:103AC00004EB4112D2F800C9BCF1000F06DA11B1C3
:103AD000C2F800A904E0C4F8009901E0C2F80009A6
:103AE000C2F81009C2F80839491C8E42E8D80021F2
:103AF00015E000BF04EB4112D2F800CBBCF1000F7F
:103B000006DA11B1C2F800AB04E0C4F8009B01E092
:103B1000C2F8000BC2F8100BC2F8083B491C8E42D9
:103B2000E8D8D4F8101821F48072C4F81028A061E5
:103B30006FF080406061BBF1000F03D1A06940F0DD
:103B40001000A061A06909490843A0610C9818B150
:103B5000A06940F00800A061012F03D1A0690449C9
:103B60000843A0612846BDE8F08F000000383C8083
:103B700004000040816821F001018160002070474D
:103B800070B50D784E78434CEBB200EB4313012E29
:103B90001FD0D3F8100B6FF31200C3F8100BD3F83B
:103BA000100B2040C3F8100B486908B188684861C1
:103BB000D3F8100B40F40020C3F8100BD3F8100B0F
:103BC0008C68C4F312042043C3F8100B012A55D0AB
:103BD00058E04E69002ED3F8106932D06FF3120608
:103BE000C3F81069D3F810692640C3F810694E690C
:103BF0008C68A64200D94C61D3F8104944F40024E3
:103C0000C3F81049D3F810494E69C6F3120634437D
:103C1000C3F81049012A22D000EB4512D2F800392E
:103C200043F00443C2F800394A6932B3D0F834286B
:103C3000097801F00F03012199400A43C0F83428A4
:103C400026E02640C3F81069D3F8104944F4002454
:103C5000C3F81049D3F810496FF31204D8E7096983
:103C600019B100EB4512C2F8141900EB4510D0F859
:103C7000001941F00441C0F8001909E0C86808B112
:103C8000C3F8140BD3F8000B40F00440C3F8000B4A
:103C9000002070BDFFFF07E010B5036C134CA3427A
:103CA00003D9D0F8003B002B1EDB0023C0F8103BEB
:103CB000D0F8103B43F40023C0F8103BD0F8103B81
:103CC00043F01803C0F8103BD0F8103B43F0C0435A
:103CD000C0F8103B012907D1C0F8142BD0F8001B05
:103CE00041F08021C0F8001B002010BD0A30544F65
:103CF0004A780B78012A00EB43100BD0D0F8002B48
:103D000022F40012C0F8002BC978032914D002292C
:103D100012D017E0D0F8002922F40012C0F80029D0
:103D2000C978032901D002290CD1D0F8001941F03B
:103D30008051C0F8001905E0D0F8001B41F0805117
:103D4000C0F8001B002070470A784B78D1B200EB16
:103D50004110012B12D0D0F8001B002906DB2AB13C
:103D6000D0F8001B21F08041C0F8001BD0F8001BE8
:103D700041F40011C0F8001B00207047D0F8001972
:103D8000002906DB2AB1D0F8001921F08041C0F8E3
:103D90000019D0F8001941F40011C0F80019EBE740
:103DA000F8B50C784F78774DE3B26FF0604600EBD2
:103DB0004313012F26D0D3F8104B6FF31204C3F82E
:103DC000104BD3F8104B2C40C3F8104B4C69002C0F
:103DD00074D08D682C44641EB4FBF5F4D3F8105BEA
:103DE000A4B206EAC4463543C3F8105BD3F8105BAF
:103DF0008E686643C6F312042543C3F8105B012A9C
:103E000071D0A6E04F691FB3D3F810796FF3120792
:103E1000C3F81079D3F810792F40C3F810794F699F
:103E20008D682F447F1EB7FBF5F506EAC545D3F82C
:103E300010693543C3F81059D3F810594E69C6F3C9
:103E400012063543C3F81059CD78012D10D01BE070
:103E5000D3F810692E40C3F81069D3F8105945F40F
:103E60000025C3F81059D3F810596FF3120509E073
:103E7000D3F8105925F0C045C3F81059D3F810599C
:103E800045F00055C3F81059012A18D000EB44132F
:103E9000D3F8004944F00444C3F80049CC78012C1D
:103EA0002FD04A6962B3D0F83428097801F00F03A3
:103EB000012199400A43C0F8342860E036E00A69DD
:103EC0001AB100EB4413C3F81429C97801290FD1A2
:103ED000D0F80818C90500EB4411D1F8002903D423
:103EE00042F0005202E030E042F08052C1F8002976
:103EF00000EB4410D0F8001941F00441C0F800195B
:103F00003DE0D0F80848E405D3F8004902D444F075
:103F1000005401E044F08054C3F8004900928A8ABA
:103F200093B20A78C96800F061F928E0D3F8104B21
:103F30008D68C5F312052C43C3F8104BD3F8104B12
:103F400044F40024C3F8104B59E7CA680AB1C3F817
:103F5000142BC97801290CD1D0F80808C005D3F872
:103F6000000B02D440F0005001E040F08050C3F854
:103F7000000BD3F8000B40F00440C3F8000B002006
:103F8000F8BD0000FFFF07E0816841F0010181609A
:103F900000207047002110220261054A491C91420D
:103FA00001D9032070470369DB06F7D4002070476E
:103FB000400D03000022202343EA811101610549DD
:103FC000521C8A4201D90320704703699B06F7D42B
:103FD00000207047400D0300D0F8080810F00600DC
:103FE00004D0022803D0062801D00F2070470220F9
:103FF0007047406900F001007047D0F81818D0F8F9
:104000001C08084080B27047D0F81818D0F81C0877
:104010000840000C704710B5D0F81038D0F834289C
:1040200001F00F0400EB4110E24002F00102D0F871
:10403000080943EAC212104010BD00EB4111D1F84B
:10404000081BD0F81408084070474169806908408F
:104050007047D21C10B59308002200F5805002E092
:104060000468521C10C19A42FAD3084610BD10B51C
:10407000C26822F0C042C260012902D029B10120E9
:1040800010BDC16841F0005102E0C16841F08041BB
:10409000C1603220FCF742FD002010BDD0F800289E
:1040A00022F4FE62C0F80028D0F800284FF4FE6326
:1040B00003EA01110A43C0F80028002070470000FD
:1040C000022A3ED1264A274B0A449A4201D20F21A6
:1040D00038E0254A254B0A449A4201D20E2131E0AC
:1040E000234A244B0A449A4201D20D212AE0224A53
:1040F000224B0A449A4201D20C2123E0204A214B50
:104100000A449A4201D20B211CE01F4A1F4B0A4469
:104110009A4201D20A2115E01D4A1E4B0A449A42D6
:104120000FD31D4A1D4B0A449A4201D2082109E0CF
:104130001B4A11441B4A914201D2072102E0062189
:1041400000E00921C26822F47052C260C2684FF4D4
:10415000705303EA81210A43C260002070470000C7
:10416000405327FF00350C00401E1BFF40420F004C
:1041700000DC0BFF804F1200808CF9FE20D613006C
:1041800060B6E5FE60E3160000D3CEFE40771B006C
:10419000C05BB3FEC091210000CA91FE20753800BB
:1041A000E05459FEE09C410010B5044600214FF652
:1041B0007F3000BF04EB4112C2F80809C2F8080BB7
:1041C000491C0F29F6D30020C4F81008C4F81408BD
:1041D000C4F81C082046FFF7DDFE002805D1204664
:1041E000BDE810401021FFF7E5BE10BD10B5029CE0
:1041F00064B9DB1C9C0800EB0230002300F5805002
:1042000002E004C902605B1CA342FAD3002010BD87
:10421000FEE70907090E002804DB00F1E02080F822
:104220000014704700F00F0000F1E02080F8141D2A
:10423000704702E008C8121F08C1002AFAD170476F
:104240007047002001E001C1121F002AFBD1704716
:10425000F0B51E4947F618101D4D0A784FF47A74D0
:10426000B0FBF2F34B8100201A4E10E003FB00F785
:1042700007F57A7795FBF7F70B3FBFB226F820706A
:10428000B4FBF7F706EB800C401CACF802709042D0
:10429000ECDB4A7846F21800B0FBF2F38B81002089
:1042A0000D490FE003FB00F606F57A7695FBF6F66E
:1042B0000B3EB6B221F82060B4FBF6F601EB8007A6
:1042C000401C7E809042EDDBF0BD0000000000202D
:1042D00040420F0058010020540500202DE9F05FF6
:1042E000BD4C002504F10D07207901280BD1BB4BF3
:1042F0000522791FBA48FDF7B9FE00203D54401C45
:104300000528FBDB2571E07801287DD17878DFF87E
:10431000D492DFF8D482012877D1B878032802D06C
:1043200002280BD00CE0F878012802D0022803D034
:10433000E5E001206070E2E06570E0E000F0B0F9D7
:10434000B878012876D100F0CDFE2078DFF89CA265
:1043500000EB4001C1EBC012DAF80000A44900EB09
:104360008210CAF800000B68DFF888B203EB8212F3
:104370000A60DBF8001000F025FC002612E09E48E1
:1043800030F81610DBF8000001449C4830F8162085
:10439000DAF80000104400F015FC99F80000FEF770
:1043A0008BF8761CE0888642E9DB464698F80000E8
:1043B000FEF7EEF83078FEF7EBF8DFF844B2DFF8FE
:1043C00030A2DBF80010DAF8000000F0FBFB00265A
:1043D000DFF828A211E088483AF8162030F81610C5
:1043E000DBF80000014482480068104400F0EAFB5A
:1043F00098F80000FEF7CCF8761CE0888642EADBED
:1044000080480168804801E086E013E0006800F021
:10441000D9FB7E48FCF782FB002000F0ADFD0021B7
:10442000084600F0CFFB2078401CC0B22070062860
:1044300000D325707878022802D0032826D05EE0C9
:10444000B878312807D0322809D00A2111280AD09B
:10445000122811D053E0F97889F800104FE0F9786C
:1044600088F800104BE0F8787F3800EB800080017E
:1044700090FBF1F0664907E0F8787F3800EB8000A8
:10448000800190FBF1F06349086038E0B87850286B
:1044900001D100F027FEB878622802D1F878FEF743
:1044A00077F8B878612802D1F878FEF705F8B8787F
:1044B000602813D14F4801684C48006800F082FB27
:1044C00099F80000FDF7F8FF4D480168484800687A
:1044D00000F078FB98F80000FEF75AF8B8785128F9
:1044E0000DD1F878012806D100F0FCFD002000F085
:1044F000A1FC0120A070F878022800D1A5703649EF
:10450000364B05220D313648FDF7B0FD00203D54F5
:10451000401C0528FBDBE570607801283CD13E4E4D
:10452000012204213046FCF7ECFB1420FCF7F6FADC
:10453000012208213046FCF7E4FBB420FCF7EEFA38
:10454000002208213046FCF7DCFB012542F21077FF
:104550000F20FCF7E3FA012208213046FCF7D1FBDB
:104560000520FCF7DBFA002208213046FCF7C9FBE6
:104570006D1CBD42ECDB002204213046FCF7C1FB80
:104580004CF250352846FCF7C9FA2846FCF7C6FA23
:1045900044F62060FCF7C2FAA07801281AD100F096
:1045A000FDFC0D49FF2012310C4B087011204870A2
:1045B0001A480088020A8A70C870104400F5887092
:1045C000087105220648FDF751FDBDE8F05F0020A7
:1045D00000F030BCBDE8F09F56000020A08601002E
:1045E000D40D002054000020550000202C00002095
:1045F00034000020300000204E0B00205009002025
:1046000038000020480000204400002040420F00F5
:104610004C00002050000020000C02401C00002034
:1046200010B5002821D0114B0022001F196803E0AB
:10463000814203D80A4649680029F9D152B113686A
:10464000841A9C4204D1006818441060104602E0AD
:10465000506000E0186039B102680B1A934203D130
:104660000B681A4402604968416010BD5001002087
:1046700010B50A48FCF7ACF942F21074214607481D
:10468000FCF754F90028F9D10448FCF7F1F884B29A
:104690000248FCF713FA204610BD00004C0D002024
:1046A00010B500F01BF900F005F8BDE8104000F06F
:1046B0008BB800002DE9F04700F05EFE00252C4687
:1046C000DFF8F890DFF8F8804FF480463D4F1BE0AC
:1046D00039F8252009EB8501028149880024C18031
:1046E00006E000BFB8F8080000F096FE641CE4B2D3
:1046F00031463846FCF700FB012803D0B8F8061015
:104700008C42EFD36D1CEDB231463846FCF7F4FA1B
:10471000012804D098F8001040468D42D8D398F86C
:10472000001040468D422CD109EB810131F8041C68
:10473000018103E0B8F8080000F06EFE314638460B
:10474000FCF7DAFA0128F5D11BE06D1EEDB2404608
:1047500039F82520A8F8082014B1C48000240BE003
:1047600009EB85014988C18006E000BFB8F8080060
:1047700000F052FE641CE4B2B8F806108C42F5D387
:104780000024002DE1D100F0E7FDB9F80000444617
:10479000A8F8080002E0208900F03EFE31463846C5
:1047A000FCF7AAFA0128F6D000254FF44860A5616D
:1047B00000F020FAA561BDE8F08700005801002054
:1047C00000000020000402402DE9F04700F0F4FD55
:1047D00000252C46DFF8F890DFF8F8804FF480567B
:1047E0003D4F1BE039F8252009EB850102814988FE
:1047F0000024491CC18005E0B8F8080000F024FE40
:10480000641CE4B231463846FCF776FA012803D03E
:10481000B8F806108C42EFD36D1CEDB23146384625
:10482000FCF76AFA012804D098F8001040468D423F
:10483000D8D398F8001040468D422CD109EB810165
:1048400031F8041C018103E0B8F8080000F0FCFD19
:1048500031463846FCF750FA0128F5D11BE06D1EB1
:10486000EDB2404639F82520A8F8082014B1C480DC
:1048700000240BE009EB85014988C18006E000BFF8
:10488000B8F8080000F0E0FD641CE4B2B8F80610C7
:104890008C42F5D30024002DE1D100F07DFDB9F864
:1048A00000004446A8F8080002E0208900F0CCFD92
:1048B00031463846FCF720FA0128F6D000254FF49F
:1048C0004860E56100F026FAE561BDE8F087000088
:1048D0005801002000000020000402402DE9F047AC
:1048E00000F08AFD00252C46DFF8F890DFF8F8800C
:1048F0004FF480663D4F1BE039F8252009EB850118
:10490000028149880024491CC18005E0B8F80800EC
:1049100000F0B4FD641CE4B231463846FCF7ECF913
:10492000012803D0B8F806108C42EFD36D1CEDB20D
:1049300031463846FCF7E0F9012804D098F8011018
:1049400040468D42D8D398F8011040468D422CD174
:1049500009EB810131F8041C018103E0B8F808007B
:1049600000F08CFD31463846FCF7C6F90128F5D138
:104970001BE06D1EEDB2404639F82520A8F808204E
:1049800014B1C48000240BE009EB85014988C18083
:1049900006E000BFB8F8080000F070FD641CE4B247
:1049A000B8F806108C42F5D30024002DE1D100F0B8
:1049B00013FDB9F800004446A8F8080002E0208979
:1049C00000F05CFD31463846FCF796F90128F6D038
:1049D000002540F69620256200F03EFA2562BDE8EB
:1049E000F087000054050020000000200004024071
:1049F000B6B0C4224C496846FBF713FCFCF794F9A7
:104A0000FDF708FEFDF7E6FBFDF7B8FB4848474910
:104A10004FF4E13500240160C0E901540C26C46064
:104A2000C0E904468461C461FDF762FA4048414927
:104A300040300160C0E90154C460C0E904468461AB
:104A4000C461FDF755FAFDF747FC39483194403809
:104A50003294339438493494016044F2A011C0E98F
:104A6000011442F21071C0E903148461FDF71AF9D0
:104A70004FF4805031902E4831A94038FDF742F96B
:104A80002E4801222E4904702948FDF7C5FA41F24B
:104A90008830FCF743F82B482B490068B0FBF1F055
:104AA000FDF7ECF8FFF7D4FBFFF7FAFD274B0020EA
:104AB0006F461C804FF0FF3A00EBD072002122F0CD
:104AC0000102821AC2F1010404EB840505EBC4055E
:104AD0000AEB420401FB0456C6EBC60207EB420296
:104AE000125C012A16D1DFF868801A88C0EB001C1E
:104AF0004FF6FF7909EA4C1C28F812C0C6F10D06E2
:104B0000C6EB061C09EA4C16DFF848C02CF8126008
:104B1000521C1A80491C0E29DCDB401C0E28CBDB02
:104B2000FFF7DCFBFCE70000AC540008004C004041
:104B3000D40D002000440040001800406E0000200A
:104B40006D000020E800002040420F005C000020C3
:104B5000500900204E0B0020F0B50B30154D20F011
:104B600007010024144A0FE003688B420BD38B42E9
:104B700005D95E1A43184768C3E9006700E0436837
:104B8000136002C004E0021D10680028ECD120462A
:104B9000002802D1286808B10020F0BD064A074865
:104BA0001060074A121A22F00702C0E9002401200F
:104BB0002860D7E75401002050010020341700205E
:104BC00030370020094A10B590420DD891420BD8D9
:104BD000074A9369D269C01A8C1A00F00BF8204674
:104BE00000F098F8012010BD002010BD80380100B1
:104BF000000000202DE9F05F424E04464249B069B2
:104C000000EB040989457AD8002C02DA00F0B4FBE5
:104C100001E000F0A1FB002C00DA64420027A0466E
:104C20003D464FF4804B1BE03848002530F82710F4
:104C300000EB870031814088F0800AE05946344813
:104C4000FCF75AF8012802D0308900F0E5FB641E19
:104C50006D1CF088854202DAB4EB6A0FEEDC7F1C33
:104C60003078874204DA08EBD87AB4EB6A0FDBDCE1
:104C70003078B246874214D1C8EB44060025DFF8ED
:104C800090800BE059464046FCF736F8012803D0E7
:104C9000BAF8080000F0C0FB641E6D1CB542F1DBE1
:104CA00000255646002F25DB002C23DB17487F1EEE
:104CB00030F82710318115B1F580002503E000EBB5
:104CC00087004088F080DFF84880F08885420FDA5E
:104CD000002C0DDD09DD59464046FCF70DF8012892
:104CE00002D0308900F098FB641E6D1CEDE706E0F1
:104CF0000025D7E70120C6F81890BDE8F09F0020F6
:104D0000FBE700000000002080380100580100206F
:104D1000000402402DE9F05F424E04464249F0692A
:104D200000EB040989457AD8002C02DA00F044FB34
:104D300001E000F031FB002C00DA64420027A046BD
:104D40003D464FF4805B1BE03848002530F82710C3
:104D500000EB870031814088F0800AE059463448F2
:104D6000FBF7CAFF012802D0308900F06DFB641EFA
:104D70006D1CF088854202DAB4EB6A0FEEDC7F1C12
:104D80003078874204DA08EBD87AB4EB6A0FDBDCC0
:104D90003078B246874214D1C8EB44060025DFF8CC
:104DA00090800BE059464046FBF7A6FF012803D050
:104DB000BAF8080000F048FB641E6D1CB542F1DB38
:104DC00000255646002F25DB002C23DB17487F1ECD
:104DD00030F82710318115B1F580002503E000EB94
:104DE00087004088F080DFF84880F08885420FDA3D
:104DF000002C0DDD09DD59464046FBF77DFF0128FB
:104E000002D0308900F020FB641E6D1CEDE706E047
:104E10000025D7E70120C6F81C90BDE8F09F0020D0
:104E2000FBE700000000002080380100580100204E
:104E300000040240064910B5884206D80549C969F0
:104E4000401AFFF767FF012010BD002010BD0000D1
:104E500080380100000000202DE9F05F424E04463A
:104E60004249306A00EB040989457AD8002C02DAFD
:104E700000F0C2FA01E000F0AFFA002C00DA644260
:104E80000027A0463D464FF4806B1BE038480025C4
:104E900030F8271000EB870031814088F0800AE06D
:104EA00059463448FBF728FF012802D0308900F02A
:104EB000E5FA641E6D1CF088854202DAB4EB6A0FD5
:104EC000EEDC7F1C3078874204DA08EBD87AB4EB4A
:104ED0006A0FDBDC3078B246874214D1C8EB440657
:104EE0000025DFF890800BE059464046FBF704FFB1
:104EF000012803D0BAF8080000F0C0FA641E6D1C47
:104F0000B542F1DB00255646002F25DB002C23DBC4
:104F100017487F1E30F82710318115B1F580002524
:104F200003E000EB87004088F080DFF84880F088DD
:104F300085420FDA002C0DDD09DD59464046FBF7AE
:104F4000DBFE012802D0308900F098FA641E6D1C47
:104F5000EDE706E00025D7E70120C6F82090BDE880
:104F6000F09F0020FBE700000000002080380100D7
:104F70005801002000040240064910B5884206D8B6
:104F80000549096A401AFFF767FF012010BD00209C
:104F900010BD000080380100000000202DE9F84F0E
:104FA00000252C46FFF764FB074640F61F69BB4609
:104FB00000F0F2F9DFF820A1484E17E03AF825207A
:104FC0000AEB8501328149880024491CF18004E004
:104FD000308900F039FA641CE4B24148F169814239
:104FE00002D2F0888442F3D36D1CEDB23C48F169E3
:104FF000814202D231788D42E0D331788D4248D15E
:105000000AEB8101804631F8041C318113E000274E
:10501000308900F019FA7F1CA02FF9DBFFF728FB7D
:1050200007465946BBEB070000D54042962801DDF4
:105030000F4600E0BB46F169414504D8A9EB0700E3
:10504000B0F5FA7FE3DB00274FF4486B009130891D
:1050500000F0FAF97F1C5F45F9DBFFF709FB0EE072
:105060000027308900F0F0F97F1CA02FF9DBFFF753
:10507000FFFABBEB000100D54942962900DC8346CC
:10508000F269424504D8A9EB0B00B0F5FA7FE7DCE2
:1050900090465746BDB16D1EEDB237F82500308100
:1050A00014B1F480002409E007EB85004088F0800B
:1050B00004E0308900F0C8F9641CE4B2F08884424E
:1050C000F7D30024E6E7009908EB0100BDE8F84FAC
:1050D00041080020FFF776BD5801002000000020A5
:1050E000803801002DE9F04F89B000F075F90025F6
:1050F0002C46944FDFF85082944E18E038F8251073
:1051000008EB8500318140880024F08004E030897C
:1051100000F0B4F9641CE4B208213846FBF7ECFD5A
:10512000012802D0F0888442F1D36D1CEDB2082131
:105130003846FBF7E1FD012802D070788542DDD3C7
:10514000707885420ED108EB800030F8040C308175
:1051500002E0308900F092F908213846FBF7CCFDD7
:105160000128F6D14746BDB16D1EEDB237F82500D6
:10517000308114B1F480002409E007EB85004088F9
:10518000F08004E0308900F079F9641CE4B2F08822
:105190008442F7D30024E6E7FFF76AFA074640F6B1
:1051A0001F69019000F0F8F8DFF8A481DFF8A4B1DE
:1051B00016E03BF825200BEB85013281498800245D
:1051C000491CF18004E0308900F03EF9641CE4B22F
:1051D000F169414502D2F0888442F4D36D1CEDB2EE
:1051E000F169414502D231788D42E2D331784FF4F2
:1051F000FA7A8D4261D10BEB810131F8041C3181C7
:1052000012E00027308900F01FF97F1CA02FF9DB86
:10521000FFF72EFA01990746C81B9630B0F5967F26
:1052200001D90F4600E00197F169414503D8A9EB88
:1052300007005045E5DB05910027B162308900F099
:1052400003F97F1CB7F5486FF8DBFFF711FA074643
:1052500011E00027308900F0F7F87F1CA02FF9DB60
:10526000FFF706FA07460198C01B9630B0F5967F07
:1052700001D9019F00E00197F169414503D8A9EBED
:1052800007005045E5DC0691716216E06D1EEDB237
:105290003BF82510318114B1F480002409E00BEBB8
:1052A00085004088F08004E0308900F0CDF8641C6F
:1052B000E4B2F0888442F7D30024002DE6D1DDE982
:1052C0000501084441080020FFF77CFC4FF4D3643B
:1052D000A7420AD300F080F85546284600F0CEF8E1
:1052E000FFF7C6F9A042F8D209E000F085F855466C
:1052F000284600F0C3F8FFF7BBF9A042F8D3B26923
:1053000045F2203502F5A5401446F062F269A2F597
:10531000486113463163F26C22442A447263326D51
:105320001A44A2F5A242E03AC6E90E24C6E91034B6
:10533000A3F5A243403BB364FFF744FC09B001204E
:10534000BDE8F08F00080240540500200000002056
:105350008038010058010020054910B54FF40000C5
:105360008861044C6069FBF7D9FB0120A07010BD77
:105370000000024000000020054910B5802088612F
:10538000044C6069FBF7CAFBFF20A07010BD000051
:105390000000024000000020054910B54FF00070E9
:1053A0008861044C6069FBF7B9FB0120E07010BD17
:1053B0000000024000000020054910B54FF40070C5
:1053C0008861044C6069FBF7A9FBFF20E07010BD09
:1053D0000000024000000020054910B54FF4001005
:1053E0008861044C6069FBF799FB0120207110BDB6
:1053F0000000024000000020054910B5202088610F
:10540000044C6069FBF78AFBFF20207110BD00008F
:10541000000002400000002070B5094D0646402003
:10542000A861084C2069FBF779FB6801A861304648
:10543000FBF774FB94F90210A0690844A06170BDE9
:10544000000002400000002070B50A4D06464FF4EF
:105450008070A861084C2069FBF760FBE801A86137
:105460003046FBF75BFB94F90310E0690844E06108
:1054700070BD0000000002400000002070B5094D22
:1054800006461020A861084C2069FBF747FBE8009E
:10549000A8613046FBF742FB94F90410206A0844E7
:1054A000206270BD000002400000002001000100E9
:1054B00001000100010001000100010100010100E3
:1054C00000010000000101010100000001000101D4
:1054D00000010101000001010000000000010000C6
:1054E00001000001010001000001000100010001B4
:1054F00000000100000000010100010101000101A4
:105500000100000101000100000000000000010096
:105510000000010000010000010100010100010084
:105520000100010101000100000001010001010072
:105530000100000100010001010100010100010161
:105540000101000001000101000001010101000052
:105550000101000101000001000000000100010044
:10556000000001010101010101010101010101012D
:105570000000000000000000010203040607080903
:10558000000000000102030440496E7465726E6100
:105590006C20466C6173682020202F3078303830C2
:1055A00030303030302F30332A3031364B612C30B0
:1055B000312A3031364B672C30312A3036344B6744
:1055C0002C30372A3132384B672C30342A30313680
:1055D0004B672C30312A3036344B672C30372A3128
:1055E00032384B6700000000085600080000002019
:1055F00058010000CC020008A856000858010020FD
:10560000D875000042420008E32C5232090348E7F3
:1056100003D6FF0F01011013F92E1408292F1B08C0
:1056200035041A5D041A91041AD9141A05081704CE
:10563000030904120132021640830411DF2602011D
:105640000203010A191A90138855140871211B08C6
:1056500065041A69041A79041A75041A6D04193B51
:1056600011797E5324F4131D2D1408F32B1B087D90
:105670000813352C1B083104811A7914811A050C82
:1056800069041A11041409021B3008010102C03216
:1056900009042009FE01020609210BFF14041A0166
:0856A0004B0A06B429708100D9
:040000050800018965
:00000001FF
