:020000040800F2
:10000000907300209D010008C31F0008BF1D000859
:10001000C11F0008F5030008B93B000800000000FC
:100020000000000000000000000000005121000856
:10003000E1060008000000004F21000853210008DD
:10004000B7010008B7010008B7010008B7010008B0
:10005000B7010008B7010008B7010008B7010008A0
:10006000B7010008B7010008B7010008B701000890
:10007000B7010008B7010008B7010008B701000880
:10008000B7010008B7010008B7010008B701000870
:10009000B7010008B7010008B7010008B701000860
:1000A000B7010008B7010008B7010008B701000850
:1000B000B7010008B7010008B7010008B701000840
:1000C000B7010008B7010008B7010008B701000830
:1000D000B7010008B7010008B9240008B7010008FB
:1000E000B7010008B7010008B7010008B701000810
:1000F000B7010008B7010008B7010008B701000800
:10010000B7010008B7010008B7010008B7010008EF
:10011000F9210008B7010008B7010008B70100087D
:10012000B7010008B7010008B7010008B7010008CF
:10013000B7010008B7010008B7010008B7010008BF
:10014000B7010008B7010008B7010008C51F000883
:10015000B7010008B7010008B7010008B70100089F
:10016000B7010008B7010008B7010008B70100088F
:10017000B7010008B7010008B7010008000000003F
:10018000B7010008B7010008DFF80CD000F08CF8C8
:1001900000480047D53E000890730020064880477D
:1001A00006480047FEE7FEE7FEE7FEE7FEE7FEE75C
:1001B000FEE7FEE7FEE7FEE7DD2100088901000813
:1001C0002DE9F05F0546002092469B46884606468C
:1001D000814640241BE0284641464746224600F01F
:1001E00053F853465A46C01A914110D31146184647
:1001F000224600F03AF82D1A67EB01084F462246D6
:100200000120002100F031F817EB00094E41201EBB
:10021000A4F10104DFDC484631462A464346BDE8E6
:10022000F09F40EA01039B0703D009E008C9121FB1
:1002300008C0042AFAD203E011F8013B00F8013BA0
:10024000521EF9D27047D2B201E000F8012B491ECC
:10025000FBD270470022F6E710B513460A46044663
:100260001946FFF7F0FF204610BD202A04DB203A94
:1002700000FA02F1002070479140C2F1200320FAF9
:1002800003F3194390407047202A04DB203A21FAF7
:1002900002F00021704721FA02F3D040C2F120029F
:1002A0009140084319467047064C074D06E0E06848
:1002B00040F0010394E8070098471034AC42F6D3AD
:1002C000FFF766FFF043000810440008464910B5E8
:1002D0004A6822F440324A604A6843681A434A60D6
:1002E00001684A6822F480724A6001684A680369BA
:1002F00042EA03224A6001684A6822F040724A607A
:1003000001684A6883681A434A6001688A6822F46F
:1003100000628A6001688A68C3681A438A60816AD9
:100320006FF07062D14201688A6822F070628A6060
:1003300001688A680CD0836A1A438A6001688A68F7
:1003400022F040528A6001688A68C36A1A4301E059
:1003500022F040528A6001688A6822F002028A60B4
:1003600001688A68037E42EA43028A6090F820109E
:10037000002901684A680FD042F400624A600168AF
:100380004A6822F460424A6001684A68174C436A2E
:1003900004EB43331A4301E022F400624A6001682F
:1003A000CA6A22F47002CA620168CA6A838B104C5E
:1003B00004EB03531A43CA6201688A6822F400728C
:1003C0008A6001688A6890F8303042EA43228A6085
:1003D00001688A6822F480628A6001688A684069DC
:1003E00042EA8020886010BD0023014000E0FFFF4A
:1003F0000000F0FFFEE7000010B5D0F890220446A0
:1004000092F81834022B07D0032B05D0052B03D00C
:10041000062B01D0092B13D1022082F818040023E7
:1004200082F8103482F8113482F8123482F81334CE
:1004300082F8140482F81534C2F80034C2F8043487
:100440000848407DC00607D5204602F0CCFE204675
:10045000BDE8104002F06ABD4888BDE8104000F0D9
:1004600053BA0000F800002030B40B46D0F89012C8
:10047000DC8891F818248CB1022A01D0052A11D108
:100480005A88C1F80024DA880323C1F8042481F8CB
:10049000183481F8143430BC02F036B8052A05D07F
:1004A000022A03D030BC194602F023B8012081F89B
:1004B0001904062281F81824002081F8110481F81B
:1004C000120481F8130481F8142430BC7047000032
:1004D00070B5D0F890420546002194F8180403281E
:1004E00002D0062845D128E0D4F8040418B304202B
:1004F00084F8180484F8111484F8121484F813147E
:1005000084F81404D4F8000410B92078412809D0E4
:10051000D5F89412D4F8080404F582628B6901219D
:10052000984726E0D5F89412D4F8080404F58262BE
:100530008B690021F4E7052011E094F819040128E3
:1005400001D038B115E0072084F81804012284F89E
:10055000112408E00B48007D40070AD5022084F8EA
:10056000180484F8111484F8121484F8131484F80D
:10057000140404F582612846BDE87040062201F0AB
:10058000DDBF0000F800002010B50446D0F890123E
:100590001848002281F81924007D40070BD5062059
:1005A00081F8180481F8112481F8122481F81324A9
:1005B00081F8140410BD082081F8180481F8112472
:1005C00081F8122481F8132481F81404204602F0E3
:1005D0000AFED4F8940280688047BFF34F8F064824
:1005E0000168064A01F4E06111430160BFF34F8FD7
:1005F00000BFFDE7F80000200CED00E00400FA0564
:1006000070B50B460546C988D0F890420020B1B3BA
:1006100094F81814022906D0092904D0C4F8040457
:10062000C4F800044AE05988C4F80014DA88C4F811
:10063000042401B3012936D9092384F8183484F835
:10064000110484F8120484F8130484F81434880222
:10065000D4F80814A0F500600844D5F894124B694A
:10066000214698470146B4F8040482B22846BDE802
:10067000704001F063BF032A02D9022101E023E0A8
:10068000092184F8181484F8110484F8120484F8F9
:10069000130484F814142070212060704120A0708D
:1006A00003222146E2E70F2184F8181484F811048C
:1006B00084F8120484F8130484F814142846BDE85E
:1006C0007040194601F015BF022184F8181484F80F
:1006D000110484F8120484F8130484F8141470BD0F
:1006E0007047704778B50024009490F83C20012AA8
:1006F00019D0012280F83C200A6807230568092ADE
:1007000013D9EE680A3A02EB420293409E43EE6030
:100710000B788A680A3B03EB43039A400368DD6861
:100720002A43DA6010E0022078BD2E6902EB420213
:1007300093409E432E610B788A6803EB43039A40F3
:1007400003681D692A431A614A681F23072A13D2C6
:1007500005686E6B521E02EB820293409E436E63ED
:100760000B790A885B1E92B203EB83039A400368FD
:100770005D6B2A435A6327E005680D2A12D22E6B5F
:10078000D21F02EB820293409E432E630B790A88AC
:10079000DB1F92B203EB83039A4003681D6B2A436D
:1007A0001A6311E0EE6A0D3A02EB820293409E4317
:1007B000EE620B790A880D3B92B203EB83039A40F9
:1007C0000368DD6A2A43DA62164B0568144A9D42C3
:1007D00006D10D68122D03D1556845F4800555608A
:1007E00005689D4218D10B68102B01D0112B13D135
:1007F000536843F400035360096810290CD10A4977
:100800000A4A0968B1FBF2F101EB8101490000E0FD
:10081000491E00910029FBD180F83C40002078BDA2
:100820000023014000200140B400002040420F009E
:1008300070B504004FF0000503D0206C002610B105
:1008400007E0012070BD204600F01CF8666484F8C3
:100850003C60206CC00610D4206C20F4885040F01E
:10086000020020642046FFF731FD6664206C20F012
:10087000020040F00100206400E0012584F83C60A3
:10088000284670BD10B586B0044614216846FFF7AF
:10089000E1FC1149206888421CD1104800210268FF
:1008A00042F480720260006800F4807005900B488A
:1008B0001438026842F002020260006800F0020090
:1008C0000590012000900320CDE90101694604480C
:1008D00000F02CF806B010BD002001404438024062
:1008E0000004024090F83510022903D080214165B0
:1008F00001207047052180F835100068016821F05B
:10090000010101600020704770B5044600F0F4F862
:100910000546601C02D004480078044400F0ECF85E
:10092000401BA042FAD370BDA80000202DE9F84F6B
:1009300000224FF0010803254FF00F0E0B6808FA54
:1009400002F42340A3426ED14E68012E05D0022E40
:1009500003D0112E01D0122E12D186684FEA420C1C
:1009600005FA0CF7BE43CF6807FA0CF737438760E8
:100970004668A6430C79C4F30014944034434460A1
:10098000C668570005FA07FC8C6826EA0C06BC40CE
:100990003443C4604C68022C01D0122C13D1D4080B
:1009A00000EB8404A346D4F8209054074FEAD46A9D
:1009B0000EFA0AF629EA06090E6906FA0AF646EA66
:1009C0000906CBF8206006680C7926EA0C0604F0CC
:1009D0000304BC40344304604C68E40065D5364CE5
:1009E000266846F480462660246822F0030604F454
:1009F00080440094314C3444A446D4F80848960707
:100A0000370F0EFA07F6B4432D4EB04201D100263F
:100A100024E02C4EB04201D101261FE02A4EB04204
:100A200002D102261AE040E0284EB04201D103264E
:100A300014E0274EB04201D104260FE0254EB0420B
:100A400001D105260AE0244EB04201D1062605E078
:100A5000224EB04201D1072600E00826BE402643C0
:100A6000CCF808681E4E34684F689C43FF0300D5DD
:100A70001C4334601A4C241D26684F689E43BF03F4
:100A800000D51E432660164E083634684F689C43D6
:100A9000FF0200D51C433460114E0C3634684F6899
:100AA0009C43BF0200D51C433460521C102AFFF443
:100AB00045AFBDE8F88F00004438024000300140E7
:100AC000000002400004024000080240000C024006
:100AD000001002400014024000180240001C0240B6
:100AE000003C01400069084000D0012070470AB175
:100AF000816170470904FBE7014880687047000086
:100B0000A800002002488168027811448160704783
:100B1000A80000200B4810B5016841F40071016085
:100B2000016841F480610160016841F480710160F5
:100B3000032000F06FF8002000F006F800F024F821
:100B4000002010BD003C024070B50D4D04464FF42E
:100B50007A712878B1FBF0F00A490968B1FBF0F02E
:100B600000F09AFF48B9102C07D200222146501EEF
:100B700000F030F800206C6070BD012070BD0000F6
:100B8000A8000020B40000200A4808B5016841F41C
:100B900080410160006800F4804000900548001F1B
:100BA000016841F080510160006800F080500090C1
:100BB00008BD000044380240002809DB00F01F0295
:100BC000012191404009800000F1E020C0F80011AF
:100BD00070470000F0B40E4B1B680C46C3F30223B1
:100BE000C3F10705042D00D90425191D072901D2D9
:100BF000002300E0DB1E012606FA05F1491E214014
:100C000099409E40761E16403143F0BC02F0D5BF9D
:100C10000CED00E0064900F0070208684FF6FF03FC
:100C2000184040EA0220034A104308607047000061
:100C30000CED00E00000FA057047006841620020FA
:100C40007047F0B50368586A39B19C6A4FF48276F0
:100C500000EB144400204D1E0AE040EA0240986276
:100C60000FE006EB8007DF59401C04EB1744C0B2CD
:100C7000A842F6D344EA02404FF4807202EB8101AD
:100C800058500020F0BDD0F8040401F0E0BFC1EBE3
:100C9000C10200EB8202D0F80404926C01F033BF71
:100CA000C1EBC10200EB8202D0F80404D2F80822A2
:100CB00001F08CBFD0F8040401F0CBBF70B504463E
:100CC00001F00F006268904201D9012070BD0B064F
:100CD00001F00F01C1EBC10104EB81014FF00102F2
:100CE0004FF0000503D581F83D203C3103E081F849
:100CF000FD5101F5FE718D70087094F8BC03012858
:100D000008D084F8BC23206802F0C6FC84F8BC53E9
:100D1000002070BD022070BD2DE9F04104460F0691
:100D200001F00F00C0EBC00104EB81014FF00106A0
:100D30004FF0000503D581F83D603C3103E081F8B8
:100D4000FD5101F5FE7108708A60CB704A7802B1DE
:100D5000C880022B00D10D7194F8BC03012809D082
:100D600084F8BC63206802F04BFA284684F8BC5330
:100D7000BDE8F0810220FBE770B50C4601F00F05DD
:100D8000C5EBC50100EB8101C1F81032C1F80822A2
:100D90000023C1F8143281F8FD3181F8FC51036958
:100DA00001F5FE71012B00D10A612207027C006867
:100DB00003D002F0C9FC002070BD02F0B5FBFAE7D9
:100DC00070B504460D4601F00F006168884201D9F4
:100DD000012070BD29064FF000064FF0010207D533
:100DE000C0EBC00104EB810181F83D203C3107E0FC
:100DF000C5EBC50104EB810181F8FD6101F5FE71D0
:100E00008A70087094F8BC03012807D084F8BC23CA
:100E1000206802F06DFC280702D007E0022070BDB8
:100E2000217C04F57172206802F00AFC84F8BC632E
:100E3000002070BD70B50C4601F00F05C5EBC50173
:100E400000EB81010B658A6400234B65012381F867
:100E50003D3001F83C5F0369012B00D10A61220794
:100E6000027C006803D002F06FFC002070BD02F02D
:100E70005BFBFAE72DE9FC5F05680446284602F0B3
:100E80008CFD00287ED1206802F0B3FD002879D0C7
:100E9000206802F0AEFD800704D52068416901F0AA
:100EA00002014161206802F0A4FD010304F57170A4
:100EB0004FF0010A4FF0080B009075D5002620680E
:100EC00002F076FD0746DFF808946BE0F80767D07C
:100ED000F1B2206802F085FD8046C00707D005EB1F
:100EE0004611C1F808AB3146204601F071F85FEABF
:100EF000087032D52068016C00EB46100191D0F8E3
:100F0000081B2269012A019A0FD0F24B9A4214D190
:100F1000090403D54FF40041C0F8081B204600F037
:100F2000C9FA206901280FD013E04A4505D9090400
:100F300003D54FF40041C0F8081B204600F0BAFA70
:100F400001984845EDD804E020680121009A02F09C
:100F500077FB05EB4611C1F808BB5FEAC86004D512
:100F600005EB46111020C1F8080B5FEA88600ED52A
:100F70002069012804D120680121009A02F060FB59
:100F8000202100E0A1E105EB4610C0F8081B5FEA54
:100F9000884005D505EB46104FF40051C0F8081BFA
:100FA0007F08761C002F91D1206802F022FD4003BB
:100FB0004FF000095FD5206802F0F3FC07460026D9
:100FC00057E0F80753D0F1B2206802F0F8FC8046F1
:100FD000C00726D006F00F020AFA02F0D5F834282E
:100FE0008243C5F8342805EB4610C0F808A92069EB
:100FF000012807D1C6EBC60004EB8000D0E911211F
:1010000011448164F1B22046FFF741FE20690128B6
:1010100007D136B9206D20B920680121009A02F06D
:101020000FFB5FEA087003D505EB4611C1F808B95C
:101030005FEAC86004D505EB46111020C1F8080925
:101040005FEA486004D505EB46104021C0F8081956
:101050005FEA887004D505EB46100221C0F8081934
:101060005FEA086003D53146204601F01FF87F088B
:10107000761C002FA5D1206802F0BBFC002811DAF5
:10108000D5F8040820F00100C5F8040894F8F4032A
:1010900001282BD0204600F0F1F92068416901F0C9
:1010A00000414161206802F0A4FC00050BD5D5F891
:1010B0000808C00702D0204600F042FA20684169C3
:1010C00001F400614161206802F093FCC00461D525
:1010D000D5F8040820F00101C5F804181021206893
:1010E00002F03CFC00214FF67F321AE084F8F493C2
:1010F00000212046FFF7A0FDCFE700BF05EB411020
:10110000C0F80829D0F8003923F40013C0F80039DA
:10111000C0F8082BD0F8003B23F40013C0F8003BC4
:10112000491C60688842E9D8D5F81C0840F00111D4
:10113000C5F81C18206B002828460DD0D0F884086C
:1011400040F00B00C5F88408D5F8440840F00B01C6
:101150002846C5F844180DE0D0F8140842F22B01D7
:101160000843C5F81408D5F8100840F00B012846CC
:10117000C5F81018D0F8000820F4FE61C5F8001872
:10118000217C2068009A02F05BFA2068416901F432
:1011900080514161206802F02CFC800415D5206844
:1011A00002F06EF8206802F0EBFBE06000F07AFAE3
:1011B0000146227B206802F057FC204600F048F9E7
:1011C0002068416901F400514161206802F011FC7E
:1011D000C00634D52068816921F0100181612F6A31
:1011E00007F00F00C0EBC00004EB8006C7F34340DC
:1011F00006F5FE76022802D0062811D01AE047F63E
:10120000F070074216D0C7F30A1217462846F16855
:1012100002F0F3FBF0683844F060B069384408E04D
:1012200008222846009902F0E8FBB069C7F30A11CA
:101230000844B0612168886940F010008861206826
:1012400002F0D7FB000707D5204600F01BF9216804
:10125000486900F008004861206802F0CAFBC0023B
:1012600008D50021204600F037F82168486900F4CD
:1012700080104861206802F0BCFB800208D5002184
:10128000204600F02DF82168486900F400104861FC
:10129000206802F0AEFB400007D52046FFF7F3FCC4
:1012A0002068416901F080414161206802F0A1FBA2
:1012B00040070AD520684568680702D52046FFF731
:1012C000F9FC2068416829434160BDE8FC9F0000AB
:1012D0000A30544F0A31544FD0F8040401F004BDD1
:1012E000D0F8040401F002BD2DE9F0418AB00400F9
:1012F00005D094F8BD032668002520B108E0012040
:101300000AB0BDE8F08184F8BC53204600F05EF8D6
:10131000032084F8BD03F06BC00500D4256120686C
:1013200002F0FCF804F11001282288466846FEF716
:1013300078FF94E80F0001F0BDFF0226C8BB002132
:10134000206802F068FB002001270EE0C0EBC0011E
:1013500004EB810181F83D7001F83C0FC880CD702D
:101360008D60CD60401CC0B24D6161688142EDD896
:10137000002011E0C0EBC00104EB810181F8FD51B8
:1013800081F8FC0181F8FF51C1F80452C1F80852FC
:10139000401CC0B2C1F8105261688142EAD82822CC
:1013A00041466846FEF73DFF94E80F0001F0F0FF6C
:1013B00010B184F8BD63A2E784F8385084F8BD7397
:1013C000206801F0D9FF00209AE7000010B586B030
:1013D000044614216846FEF73DFF2068B0F1A04F97
:1013E0002FD119480021026842F001020260006812
:1013F00000F0010005904FF4C05000900220CDE9AC
:101400000101032003900A20049069460F48FFF76A
:101410008DFA0D48001D016841F0800101600A4805
:101420001430016841F4804101600068002200F43A
:101430008040059011464320FFF7CCFB4320FFF787
:10144000BBFB06B010BD0000303802400000024077
:1014500070B50446C068012570B1022801D0FFF7BD
:1014600040F92946D4F8040401F091FCD4F80404AE
:10147000BDE8704001F051BC0025F2E7D0F804044B
:1014800001F073BCD0F8040401F075BC10B504463B
:1014900090F8BC0301280BD0012084F8BC0384F829
:1014A0003810206802F0CEFA002084F8BC0310BD8A
:1014B000022010BDD0F8042400F57171104601F02F
:1014C00072BC10B50446006894F8BC13012906D01C
:1014D000012184F8BC13A16A012902D008E002208E
:1014E00010BDA169012903D0816B41F48031816372
:1014F000206801F035FF206802F01AFA002084F815
:10150000BC0310BD70B5044690F8BC0301280ED092
:10151000012084F8BC03206802F000F8206802F083
:1015200017FB002528B184F8BC53012070BD0220B0
:1015300070BD206801F020FF84F8BC53002070BD0E
:1015400010B50446D0F8040401F075FC2068D0F80A
:10155000001E41F00101C0F8001E206A002804D0DE
:101560000248016841F00601016010BD10ED00E085
:101570002DE9F0470E46050065D0DFF81481D8F854
:101580000000F7B200F00F00B04207D288F80070F8
:10159000D8F8000000F00F00B04254D128683D4C4C
:1015A000810712D5400703D5206840F4E050206041
:1015B0002878000703D5206840F460402060206848
:1015C000A96820F0F000084320602878C0072DD0DB
:1015D000304968680839012812D0022813D003283E
:1015E00011D00968890700292DDA216821F003014B
:1015F00001432160FFF780FA814641F2883A0EE00C
:1016000009688903EFE709688901ECE7FFF774FAD5
:10161000A0EB0901514502D90320BDE8F0872068FD
:10162000696800F00C00B0EB810FEFD1D8F8001022
:10163000404601F00F01B14207D90770006800F081
:101640000F00B04201D00120E7E72878400705D518
:101650002068E96820F4E0500843206028780007FB
:1016600006D52068296920F4604040EAC100206066
:1016700000F03EF82168084AC1F30311515CC840EC
:101680000649086006480068FFF75EFA0020C4E7D4
:10169000003C02400838024076430008B4000020B5
:1016A000AC0000200148006870470000B400002032
:1016B0000448054900680968044AC1F38221515C65
:1016C000C8407047B4000020083802408643000834
:1016D0000448054900680968044AC1F34231515C75
:1016E000C8407047B4000020083802408643000814
:1016F000104810B5006810F00C010F4818D00429EC
:1017000016D0082914D10B4C241F216801F03F0288
:10171000216821680023C1F38811A1FB0001FEF7B5
:101720004FFD2168C1F30141491C4900B0FBF1F0B4
:1017300010BD0000083802400024F4002DE9F84FE5
:10174000040076D02078DFF838A3CE4DC00749D00A
:10175000DAF800105046C1F38101012908D0006871
:10176000C0F3810002280AD1281D0068400206D576
:101770002868800336D560680028E2D032E06068CF
:10178000B0F5803F10D0B0F5A02F286810D020F41D
:1017900080302860286820F4802028606068A0B12C
:1017A000FFF7AAF906460CE0286840F48030F4E719
:1017B00040F480202860F7E7FFF79EF9801B64283B
:1017C00073D828688003F7D50CE0FFF795F9064633
:1017D00005E000BFFFF790F9801B6428F0D8286867
:1017E0008003F7D42078DFF8A08280074FF000094B
:1017F0003ED5DAF80010504611F00C0F09D0006801
:10180000C0F3810002280BD19D48001F00684002F0
:1018100006D42868800715D5E068012809D111E0B1
:10182000E068B8B10120C8F80000FFF765F9064686
:1018300005E020E1FFF760F9801B0228C0D8286886
:101840008007F7D52868216920F0F80040EAC10038
:1018500028600DE0C8F80090FFF74EF9064604E056
:10186000FFF74AF9801B02281FD828688007F7D4A1
:101870002078000722D5824E844861696C3671B1A8
:1018800001210160FFF738F9074604E0FFF734F95A
:10189000C01B022809D830688007F7D50EE0C0F8D1
:1018A0000090FFF729F9074605E082E0FFF724F9E9
:1018B000C01B02287DD830688007F7D42078400705
:1018C00068D5DFF8BCB100270BF1380BDBF800005E
:1018D000C0000BD4DBF8001041F08051CBF80010B1
:1018E000DBF80000012700F080500090684E30685F
:1018F000C00510D4306840F480703060FFF7FCF809
:10190000009005E0FFF7F8F80099401A022850D837
:101910003068C005F6D55A4EA068683601280FD049
:101920000528306810D020F001003060306820F0C9
:1019300004003060A068B8B1FFF7DEF800900FE057
:10194000306840F00100F4E740F004003060F7E751
:10195000FFF7D2F80099411A41F28830814266D8E7
:1019600030688007F4D50EE0FFF7C6F8009007E076
:10197000FFF7C2F80099411A41F28830814256D8E7
:1019800030688007F4D42FB1DBF8001021F08051CB
:10199000CBF80010A069D0B3DAF800205146C2F3AA
:1019A0008102022A4AD00228484607D0C8F86000BF
:1019B00000E03CE0FFF7A0F804463BE04746C8F8EB
:1019C0006000FFF799F8064605E000BFFFF794F8BE
:1019D000801B02282BD828688001F7D4D4E907019E
:1019E0000843A16A2B4A490802EB0141626A41EAB5
:1019F0008211084394F82C1040EA01612048001F2E
:101A0000016001203866FFF777F8044605E034E00E
:101A1000FFF772F8001B022809D828688001F7D563
:101A20002BE000BFFFF768F8001B022802D9032053
:101A3000BDE8F88F28688001F4D41EE00128F7D0B3
:101A40000868E26900F48001914214D1226A00F032
:101A50003F0191420FD147F6C071626A0140914245
:101A600009D1A26A00F44031914204D1E16A00F048
:101A70007060884201D00120DAE70020D8E700003A
:101A8000083802400038024000004742800E4742BA
:101A9000007000400000FFFF10B5401EB0F1807FD5
:101AA00001D3012010BD4FF0E02460610F216017C9
:101AB00002F083F80020A06107202061002010BD03
:101AC0007047000070B5026804461068D168536919
:101AD00010F00F0F52D003F0010501F490762E4361
:101AE0005FD0C20705D0CA0503D5E26B42F0010200
:101AF000E263420705D5DA0703D0E26B42F0020247
:101B0000E263820705D5DA0703D0E26B42F00402F4
:101B1000E263020707D501F020022A4303D0E26BFB
:101B200042F00802E263E26B002A33D0800604D55B
:101B3000880602D5204600F07BFB20684069E16BF7
:101B4000C0F38010090700D428B3204600F062FBE0
:101B50002068416949061AD5416921F04001416177
:101B6000606BA0B11B490165606BFEF7BBFE0028EE
:101B700010D0606B016DBDE870400847830610D53A
:101B80008B060ED52046BDE8704000F051BB2046C4
:101B9000FFF796FF70BD2046FFF792FF0020E0633D
:101BA00070BD030606D50B0604D52046BDE870407F
:101BB00000F01EBC4006F3D54806F1D5D16820469A
:101BC00021F04001D160202184F8391000F0F6F8AE
:101BD00070BD00000522000870B5040004D094F820
:101BE0003900002510B106E0012070BD84F838509E
:101BF000204600F023F8242084F839002068C168CA
:101C000021F40051C160204600F05EFB20680169AC
:101C100021F4904101612068416921F02A0141616C
:101C20002068C16841F40051C160E563202084F858
:101C3000390084F83A00002070BD0000F0B587B08C
:101C4000044614216846FEF705FB2A49284F2668FA
:101C50000025284A1039032302242748BE4220D1F8
:101C6000156845F400251560126802F400220592FB
:101C70000A6842F001020A60096801F00101059159
:101C80000121CDE90213CDE9003408210491694610
:101C9000FEF74CFE002211463420FEF79BFF342055
:101CA00021E0164FBE4220D1166846F40036166079
:101CB000126802F4003205920A6842F001020A60DA
:101CC000096801F0010105910C218DE8320007211E
:101CD000CDE903316946FEF729FE00221146262090
:101CE000FEF778FF2620FEF767FF07B0F0BD000083
:101CF000004C0040403802400000024000440040D8
:101D000070472DE9F843044690F839001F461646FF
:101D10000D46202850D1B5B1AEB194F83800012855
:101D20004AD0012084F838004FF00008C4F83C8005
:101D3000212084F83900FEF7DFFEA6848146E68480
:101D400084F8388026E00120BDE8F883E08C401E4E
:101D5000E084A0684B46B0F5805F4FF000024FF082
:101D600080012046009703D000F073FBE8B90DE036
:101D700000F06FFBC8B928882168C0F308004860EC
:101D8000206908B16D1C05E0AD1C03E0216815F861
:101D9000010B4860E08C0028D8D14B46002240213E
:101DA0002046009700F055FB08B10320CCE7202027
:101DB00084F839000020C7E70220C5E77047FEE736
:101DC000F0B500230A24302537261F4611E000BF56
:101DD000B4EB107F02D905EB107C01E006EB107C20
:101DE00001F813C001EB430C00015B1C8CF801707F
:101DF000DBB29342ECD3F0BD002070470020704767
:101E00000020704700207047002070470020704776
:101E10007FB5002412480094019402940F49039462
:101E200001604FF48031C0E901140461047680F848
:101E300020400C49C0E90A140125C561C46080F83E
:101E400030404561FEF7F4FC0820CDE90005694605
:101E500002940348FEF746FC7FBD000000200140CD
:101E6000280100200100000F2DE9F04786B0142161
:101E70006846FEF7EFF938480024016841F0040194
:101E80000160016801F004010591016841F08001E1
:101E90000160016801F080010591016841F00101D4
:101EA0000160016801F001010591016841F0020142
:101EB0000160016801F002010591016841F008012B
:101EC00001600068DFF8948000F008004FF470555E
:101ED0000590002229464046FEF709FEDFF8809073
:101EE0004FF47C76002231464846FEF700FEDFF8CC
:101EF00074A041F6FF77002239465046FEF7F7FD01
:101F000000950125CDE90154694640460394FEF74A
:101F10000DFDF810CDE90004694640460294FEF735
:101F200005FD0096CDE90154694648460394FEF745
:101F3000FDFCB001CDE9000469460B480294FEF7B0
:101F4000F5FC0097CDE90154694650460394FEF72D
:101F5000EDFC06B0BDE8F0873038024000080240D2
:101F600000000240000C02400004024010B50022B4
:101F70000F49104800F0A9FD08B1FEF7B2FB0E4969
:101F80000C4800F07EFF08B1FEF7ABFB0B49094897
:101F900000F0C5FB08B1FEF7A4FB064800F0C6FF41
:101FA000002803D0BDE81040FEF79BBB10BD000029
:101FB00000000020F0010020BC00002050000020A4
:101FC000FEE770470148FEF755BF00008C04002073
:101FD0002DE9F041044600680E46016C00EB461501
:101FE000D5F8080B276920234FF40042012F08D0B1
:101FF0002C4FB9424FD1010449D500BFC5F8082B79
:102000004DE0DFF8A4C05FEA007E04F5717711D5DA
:10201000614503D9000401D5C5F8082B2046FFF718
:1020200049FA3A460121206801F00AFB0820C5F868
:10203000080B34E05FEA806E02D5C5F8083B2EE05D
:1020400010F0280F2BD1614501D90004D6D4C6EB7E
:10205000C60004EB8000D5F8102BD0F80412C2F3B0
:1020600012028A1AC0F81422D0F808221144C0F8CB
:102070000812F1B22046FEF713FE86B9D4F810021A
:1020800068B93A460121206801F0DAFA07E08006D3
:1020900001D5C5F8083BF1B22046FEF701FE00204D
:1020A000BDE8F0810A31544F0A30544F2DE9F84F02
:1020B0000E46C1EBC60100EB810481460568D4E9F8
:1020C00014103C34884202D90120BDE8F88F081A68
:1020D000A168814200D20846C01C870805EB46185B
:1020E0001BE000BFA0EB010AA068504500D2824669
:1020F0000AF10300870899F8100000901FFA8AF38C
:10210000F2B22846E16801F045FDE16801EB0A0002
:10211000E060A16901EB0A00A061D8F8180980B25B
:10212000B84205D3D4E90501814201D20028D9D1B2
:10213000D4E90501884208D806F00F010120884043
:10214000D5F834188143C5F834180020BDE770472E
:102150007047FEF7D7BC000030B593B03021684619
:10216000FEF778F814210CA8FEF774F8194800253A
:10217000016841F080510160006800F080501190CA
:102180001548016841F4804101600068022400F4B0
:102190008040119001200090000401908001CDE961
:1021A000064008200890A820CDE9090407200B90DC
:1021B0006846FFF7C3FA0CA90F2081E831004FF4FD
:1021C000A0500F90E002109005210CA8FFF7D0F965
:1021D00013B030BD4038024000700040054801682F
:1021E00041F47001016003494FF0006080390860DC
:1021F0007047000088ED00E00148FFF763BC000075
:102200007001002010B5806B0021C185C184FFF7EB
:1022100057FC10BD0168CA6822F49072CA60016858
:102220004A6922F001024A61202180F83A10704781
:1022300010B590F83A10222901D0022010BD816813
:10224000B1F5805F11D00169002901681FD049688C
:1022500001F07F03816A4A1C82620B70C18D491EA6
:102260000904090CC18518D02BE00269816A002A93
:102270000268526805D0D2B20A80816A491C816224
:10228000ECE7C2F308020A80816A891CF7E74A6812
:10229000816A4B1C83620A70E0E70168CA6822F019
:1022A0002002CA600168CA6822F48072CA600168AC
:1022B0004A6922F001024A61202180F83A10FFF7B2
:1022C0001FFD002010BD00002DE9F041044600680C
:1022D0000169E26821F44051114301612169A0685C
:1022E000E26908436169114308432168CA6849F2F9
:1022F0000C639A430243CA6020684169A26921F4D1
:10230000407111434161E069192764253226B0F517
:10231000004F354A354920684FF0000806D0884202
:1023200001D0904236D1FFF7D3F935E0884201D091
:10233000904202D1FFF7CCF901E0FFF7B9F96168EB
:102340004A18A0FB070148EB0803FDF739FF0146D7
:10235000B0FBF5F00201B1FBF5F06FF01803584344
:1023600001EB800006EBC000B0FBF5F000F0F800D8
:1023700002EB4002B1FBF5F0584301EB800006EBA5
:10238000C000B0FBF5F000F0070021681044886041
:10239000BDE8F081FFF78CF961688B0F8A00A0FB24
:1023A0000701FDF70DFF0146B0FBF5F06FF01802D5
:1023B000504301EB800006EB0010B0FBF5F000F09D
:1023C000F002B1FBF5F002EB0012B1FBF5F06FF09B
:1023D0001803584301EB800006EB0010B0FBF5F04A
:1023E00000F00F00D1E70000001401400010014090
:1023F00090F83910212901D0022070478168B1F589
:10240000805F016A0BD04A1C026202680978516041
:10241000C18C491E0904090CC1840ED017E009883B
:102420000268C1F30801516001690029016A02D004
:10243000491C0162ECE7891CFBE70168CA6822F0CD
:102440008002CA600068C16841F04001C16000209C
:1024500070472DE9F041984617460E460446069D02
:102460001DE0681C1BD02DB1FEF746FBA0EB080059
:10247000A84214D92068C16821F4D071C1602068D5
:10248000416921F001014161202084F8390084F87C
:102490003A00002084F838000320BDE8F08120686D
:1024A000006836EA000004D00020B842D9D00020ED
:1024B000F3E70120F9E700000148FFF703BB000044
:1024C000B001002010B5D0F88C225268904700204F
:1024D00010BD134610B50A46002100F015FC00207F
:1024E00010BD134610B50A46002100F0ADFC0020D7
:1024F00010BD10B50446802100F082FC2046BDE8E6
:102500001040002100F07CBC10B50323C0F8482126
:10251000C0F86C32C0F84C2113460A46002100F086
:10252000F3FB002010BD10B505210023C0F86C128C
:102530001A46194600F0E8FB002010BD10B5022332
:10254000C261C0F86C32026213460A46002100F0F4
:102550007BFC002010BD10B504210023C0F86C12D4
:102560001A46194600F070FC002010BD002070478C
:102570000020704770B50446D0F890020025022173
:10258000C0F80054C0F8045480F8181480F81054AF
:1025900080F81414D4F8900248B1D4F8940204F5E9
:1025A000247480688047206801F06CFB256000205F
:1025B00070BD002070477CB5D0F8904294F8181494
:1025C000042902D0072963D064E0D4F80014002560
:1025D00089B101293AD9D0F894028902D4F80824A3
:1025E000A1F5006111440369D4F8042420469847FA
:1025F00060B302207CBD217821B1212907D0412977
:1026000016D019E0D4F8041401291FD014E0D4F82E
:102610000414052910D16078A17800EB0120E1783D
:1026200000EB0140217900EB0160C4F808040DE0E3
:10263000D4F80414052919D0C4F804540121ADF8C4
:1026400006108DF800506946FFF753FFC4F8045494
:102650000320C4F8005484F8180484F8115484F852
:10266000125484F8135484F8140413E06178A278A7
:1026700001EB0221E27801EB0241227901EB0261D8
:10268000C4F80814D0F89402C26808469047AFE72F
:10269000FDF77AFF00207CBD1B21018000487047B8
:1026A000F80000200A210180004870471401002032
:1026B00010B5062907D8D0F894020449006800F044
:1026C000D4F9024810BD002010BD00008C1200207B
:1026D00010B5044640F21C4001F09AFCC4F8900288
:1026E000B8B100F5806000214FF00062C0E902211E
:1026F0000160416041760222027601744174817466
:10270000C17402754175D4F894024068804700286E
:1027100000D0022010BD002070470020704709B192
:10272000C0F894120020704700207047F8B50026CA
:102730000D46ADF800602F78D0F89012324633463F
:10274000344617F0600760D0202F6ED16E780222D9
:10275000072E6AD2DFE806F05504080C0F32360067
:102760002946FDF781FE83E02946FDF749FF7FE01A
:10277000FDF7AEFE7CE091F818040A2811D00A207B
:1027800081F818040E2281F8102481F8113481F8A0
:10279000123481F8133481F8140400BF81F8153421
:1027A00066E081F8182481F8103481F8113481F83A
:1027B000123481F8133481F81424EFE7012201F573
:1027C00083613EE091F81804022807D0032805D061
:1027D000052803D0062801D0092849D181F81824FA
:1027E00081F8103481F8113481F8123481F81334EF
:1027F00081F8142481F81534C1F80034C1F8043488
:1028000036E02946FDF7F8FD32E06B7833B1062B50
:102810000CD00A2B18D00B2B26D11DE090F8741287
:10282000032921D1022269460BE01DE0698821239A
:10283000B3EB112F04D1EA88104E092A00D90922DE
:102840003146FFF77BFE13E090F87422032A0BD188
:10285000012201F20C41F4E76A8812F0FF0F03D164
:1028600090F87432032B05D02946FFF742FE02246C
:102870002046F8BDD0B2C1F80C04F9E70A010020E7
:1028800010B50A46024903A000F0EFF8004810BD59
:102890009408002044465520436F6E666967000027
:1028A00012200880004870472000002010B50A461A
:1028B000024903A000F0D9F8004810BD9408002098
:1028C00044465520496E7465726661636500000078
:1028D00004200880004870471C00002010B50A46FC
:1028E000024903A000F0C1F8004810BD9408002080
:1028F00053544D6963726F656C656374726F6E6972
:102900006373000010B50A46024903A000F0ADF859
:10291000004810BD9408002053544D333220446FBA
:10292000776E4C6F6164204669726D7761726520C5
:10293000557064617465000010B51A2008800A485B
:102940000168001D0468001D0068081809D00822ED
:102950000649FFF735FA0549042210312046FFF7F2
:102960002FFA0248801E10BD107AFF1F360000208B
:10297000F8B5044648880D46010A082954D2DFE814
:1029800001F05304091753534951D4F88812207C9D
:102990000A6819E0207C02260028D4F88C0205D0B1
:1029A000C16A68468847014646704AE0816AF8E78E
:1029B000C1B2062926D2DFE801F0030A0F14191E5E
:1029C000D4F88812207C4A686946904718E0D4F809
:1029D0008812207C8A68F7E7D4F88812207CCA68BD
:1029E000F2E7D4F88812207C0A69EDE7D4F888125F
:1029F000207C4A69E8E7D4F88812207C8A69E3E7FA
:102A000001461EE0C1B2D4F88C026A46836B2046B0
:102A10009847F5E7207C38B9D4F88C02416B6846BA
:102A20008847EDE7207C20B129462046FFF761FD6D
:102A3000F8BDD4F88C02016B684688470146072030
:102A40004870BDF8000048B1EA8852B1824200D90E
:102A50000246ADF800202046FFF770FDE888002808
:102A6000E6D12046FFF777FDF8BD70B500230028BA
:102A70001ED00446002502E06D1CEDB2641C2678D1
:102A8000002EF9D1022404EB450414801278CA54B4
:102A90005B1C0322CA5400245B1C06E0CA545B1C66
:102AA000DAB28C54521CD3B2401C0278002AF5D101
:102AB00070BD01004FF0000004D0012901D00229AF
:102AC00001D0022070470120704710B580B1D0F8C6
:102AD0008C3213B10023C0F88C3209B1C0F88812CF
:102AE000012180F87412027000F0BEF8002010BDC1
:102AF000022010BD10B5D0F89802FEF7DFF8BDE84F
:102B00001040FFF7D6BF2DE9F0411746044651B1FA
:102B1000D4F88C0242691AB194F87402032851D097
:102B20000220BDE8F081D4F86C32002504F11400D5
:102B3000022B03D0042B3AD0C3B33CE0D0E90363AB
:102B40009E4207D9F11AC1608AB239462046FFF782
:102B5000C8FC12E08068B0FBF3F103FB110199B9E6
:102B6000984211D3D4F8701288420DD20022114637
:102B70002046FFF7B6FCC4F8705200231A461946E7
:102B8000204600F0C1F816E0D4F88C02C16829B1E3
:102B900094F87402032801D12046884780212046FA
:102BA00000F02EF92046FFF7BEFC04E0FFE780218D
:102BB000204600F025F994F87802012804D184F821
:102BC000785201E0204690470020AAE770B51546EC
:102BD000044649B1D4F88C0282691AB194F874029F
:102BE000032830D0022070BDD4F86C1204F5A07018
:102BF000032902D005291ED027E0D0E903218A420B
:102C00000BD9531AC3600846834200D303469AB2D5
:102C100029462046FFF75DFC17E0D4F88C020169D5
:102C200029B194F87402032801D120468847204630
:102C3000FFF791FC09E000200146C4F86C02204631
:102C400000F0DEF801E020469047002070BD002033
:102C5000704710B5012180F87412D0F88C220179E8
:102C600052689047002010BD10B5017839BB154956
:102C70000222C1F80404C0F898124FF0A040086086
:102C8000042048600020C1E90320C1E90620086251
:102C90004862C86208630846FEF726FB08B1FDF7E4
:102CA00020FD80210748FDF7C8FF4022002105488C
:102CB000FDF7C7FF802201210248FDF7C2FF002077
:102CC00010BD00008C0400200A0601F07F01D0F83E
:102CD0009802C1EBC10100EB810002D590F83E00E3
:102CE000704790F8FE017047002070470020704741
:102CF00010B51C461346D0F898022246FEF70CF891
:102D0000BDE81040FFF7D5BE10B5D0F89802FEF729
:102D100033F8BDE81040FFF7CCBE70B50022044682
:102D200040231146FFF7E4FF40260125C4F8506117
:102D30003346002280212046C4F84451FFF7D8FFD3
:102D40006662A56184F874520020C4F86C02606069
:102D5000C4F87C02D4F8900228B1D4F88C02002187
:102D6000426820469047002070BD90F8751280F8A8
:102D700074120020704710B590F87412032904D122
:102D8000D0F88C12C96901B18847002010BD0174C8
:102D90000020704710B5D0F89802FEF777FBBDE829
:102DA0001040FFF786BE70B5044600F5207005465A
:102DB00000F053F80120C4F86C02B4F88602C4F89D
:102DC000700294F8800210F01F010AD001290DD082
:102DD000022910D000F08001204600F011F80020F8
:102DE00070BD2946204600F0A6F8F8E7294620469F
:102DF00000F0D2F9F3E72946204600F025F9EEE786
:102E000010B5D0F89802FDF7DBFFBDE81040FFF7E2
:102E100050BE10B5D0F89802FEF753FBBDE8104045
:102E2000FFF747BE10B5D0F89802FEF76BFBBDE880
:102E30001040FFF73EBE90F8741280F8751204211E
:102E400080F874120020704710B5D0F89802FDF792
:102E5000F1FFBDE81040FFF72CBE0A7802704A78F7
:102E600042708A78CB7802EB032242800A794B7950
:102E700002EB032282808A79C97902EB0121C180A9
:102E800070470246002011B1C2F88C127047022030
:102E9000704710B5D0F88C2202241AB112689047FE
:102EA00000B90024204610BD70B50E461E4D89782D
:102EB00004462970012931D894F8740202280BD0F5
:102EC00003280FD031462046FFF713FB2978204610
:102ED000BDE87040FFF7F6BAD9B10320616084F80D
:102EE000740209E071B16068884212D0C1B2204614
:102EF000FFF7E8FA297861602046FFF7CAFF022849
:102F00000CD006E0022084F8740220466160FFF7CE
:102F1000D9FA2046BDE87040FFF71DBB3146204678
:102F2000BDE87040FFF7E5BAB800002010B5FFF724
:102F300070FF002010BD2DE9F0410A78002612F044
:102F4000600208D0202A01D0402A70D1D0F88C220B
:102F5000926890476DE04B78002201250A2B66D2DB
:102F6000DFE803F0405D6557650805652C29FFF72C
:102F7000FFFC5EE004468888D8B9C888C8B948888C
:102F8000802816D200F07F0794F87402032810D02E
:102F900084F8767239462046FFF7FCFE2046FFF79C
:102FA000DAFA1FB1022084F8740242E084F8745205
:102FB0003FE020463BE0FFF777FF3AE0CB88012B6C
:102FC00035D190F87432012B04D0022B02D0032BA0
:102FD0002DD104E08260012200F1080116E00122F7
:102FE000011D13E090F87422012A03D0022A01D0B7
:102FF000032A1CD1CA88022A19D1C560D0F87C12D4
:1030000009B10321C160022200F10C01FFF796FA19
:103010000FE0498801290CD1C0F87C5211E090F8EA
:103020007432012B08D0022B06D0032B04D0FFF7FB
:1030300060FA3046BDE8F08149880129F9D1C0F82D
:103040007C22FFF788FAF4E72DE9F0410A460446AE
:1030500010780027097910F060030AD0202B01D0E6
:10306000402B50D1D4F88C021146836820469847F3
:103070008FE0C0F34110012806D05078D0B301286A
:103080002AD003283FD107E0D4F88C021146836888
:103090002046BDE8F041184794F87402022802D097
:1030A000032872D10AE071B380296ED02046FFF761
:1030B000A7FE80212046FFF7A3FE6AE0508838B9BA
:1030C00031B1802904D0D08810B92046FFF798FE8E
:1030D0002046FFF740FA5CE094F874020228E2D040
:1030E000032852D1508898BB4806F1D02046FFF7FC
:1030F00001FDEDE7FFE794F874020026022803D0F3
:10310000032842D112E040E009B180293DD10806F0
:1031100001F07F0000EB800004EB800101D5143149
:1031200001E001F5A07102220E602AE0080601F01C
:103130000F0000EB800004EB80000AD5806920B30B
:1031400001F07F0000EB800004EB800514350BE0FC
:103150001FE0D0F84401C0B101F07F0000EB800017
:1031600004EB800505F5A07541B1802906D0204605
:10317000FFF7AAFD10B10120286000E02E600222B6
:1031800029462046FFF7DAF903E011462046FFF70B
:10319000B0F93846BDE8F08170B5054608780C46B0
:1031A00010F0600003D0202801D0402816D195F8F7
:1031B0007402012803D0022801D003280ED12079FF
:1031C00001280BD8D5F88C02826828469047E18800
:1031D000014306D12846FFF7BEF902E02846FFF773
:1031E00088F9002070BD10B504460179D0F88C0232
:1031F0004268204690472046FFF714FE002010BD8D
:1032000070B50A78012302F00F054E78AB401B4CD5
:10321000D0F81C58012E17D045EA0343C0F81C38DB
:1032200000EB4210D0F8002B12040BD4D0F8002B86
:103230000B89C978C3F30A031A4344EA81410A435C
:10324000C0F8002B002070BD9BB21D43C0F81C5875
:1032500000EB4210D0F800391B04F3D4D0F8003949
:103260000D89C978C5F30A0589042B4341EA8251C7
:103270000B432343C0F80039E4E70000008000104E
:10328000D0F800196FF30A01C0F80019D0F8081837
:10329000C1F34101022905D1D0F8001941F0030121
:1032A000C0F80019D0F8041841F48071C0F804186F
:1032B0000020704770B5044606990A9E049D0D983B
:1032C000012916D0E06840F04000E060204600F0A0
:1032D0002BF8A16B1EB321F48031A163012D07D11E
:1032E000A16841F00601A160A16841F02001A16040
:1032F00070BDA16B21F48031A163E168094A1140DE
:10330000E160E16821F44011E160012803D1E06847
:1033100040F48010E060204600F006F8DEE741F45B
:103320008031DAE7BFFFBDFF01220C4902E0521CE9
:103330008A420BD80369002BF9DA026942F00102D4
:103340000261012204E0521C8A4201D90320704725
:103350000369DB07F7D1002070470000400D030030
:1033600010B5D0F8041821F00201C0F804180320A9
:10337000FDF7CAFA002010BD10B5D0F8041841F0CE
:103380000201C0F804180320FDF7BEFA002010BDAA
:103390002DE9F04F0025DDE90BCB0E460446DDF8A4
:1033A0004090099F2846294604EB8002C2F8041188
:1033B000401C0F28F8D3B9F1000F204618D0006840
:1033C00020F400122260A06B40F40022A2630846A1
:1033D0008846C4F8000ED4F800182046C4F8001837
:1033E000BCF1010F10D0D0F8001841F0030110E03B
:1033F000806B40F40012A263A06B20F40022A26351
:10340000A06B20F48022E1E7D0F800180BB141F066
:103410000101C0F80018102100F0A0FA00B1012548
:10342000204600F08BFA00B101254046C4F8108810
:10343000C4F81488C4F81C8800214FF000634FF0D2
:1034400090484FF67F3A14E004EB4112D2F800C9DD
:10345000BCF1000F06DA11B1C2F8008904E0C4F82B
:10346000003901E0C2F80009C2F81009C2F808A941
:10347000491C8E42E8D8002115E000BF04EB411240
:10348000D2F800CBBCF1000F06DA11B1C2F8008B04
:1034900004E0C4F8003B01E0C2F8000BC2F8100BD6
:1034A000C2F808AB491C8E42E8D8D4F8101821F4B1
:1034B00080722146C4F81028012F08D1134AC1F8A0
:1034C0003028D1F83018124A1143C4F83018A061DE
:1034D0006FF0804060611FB9A06940F01000A061EA
:1034E000A0690C490843A061BBF1000F03D0A0699B
:1034F00040F00800A061B9F1010F03D1A0690649AD
:103500000843A0612846BDE8F08F0000000180005C
:103510000300010000383C8004000040816821F075
:10352000010181600020704770B50D784E78434CE2
:10353000EBB200EB4313012E1FD0D3F8100B6FF347
:103540001200C3F8100BD3F8100B2040C3F8100B77
:10355000486908B188684861D3F8100B40F400202E
:10356000C3F8100BD3F8100B8C68C4F3120420437B
:10357000C3F8100B012A55D058E04E69002ED3F83D
:10358000106932D06FF31206C3F81069D3F81069CE
:103590002640C3F810694E698C68A64200D94C6178
:1035A000D3F8104944F40024C3F81049D3F8104963
:1035B0004E69C6F312063443C3F81049012A22D0DB
:1035C00000EB4512D2F8003943F00443C2F8003949
:1035D0004A6932B3D0F83428097801F00F03012189
:1035E00099400A43C0F8342826E02640C3F8106901
:1035F000D3F8104944F40024C3F81049D3F8104913
:103600006FF31204D8E7096919B100EB4512C2F84B
:10361000141900EB4510D0F8001941F00441C0F82E
:10362000001909E0C86808B1C3F8140BD3F8000BFF
:1036300040F00440C3F8000B002070BDFFFF07E01E
:1036400010B5036C134CA34203D9D0F8003B002BF8
:103650001EDB0023C0F8103BD0F8103B43F40023DE
:10366000C0F8103BD0F8103B43F01803C0F8103BF3
:10367000D0F8103B43F0C043C0F8103B012907D1FC
:10368000C0F8142BD0F8001B41F08021C0F8001BBB
:10369000002010BD0A30544F4A780B78012A00EB05
:1036A00043100BD0D0F8002B22F40012C0F8002BEE
:1036B000C978032914D0022912D017E0D0F80029C4
:1036C00022F40012C0F80029C978032901D0022988
:1036D0000CD1D0F8001941F08051C0F8001905E074
:1036E000D0F8001B41F08051C0F8001B002070474B
:1036F0000A784B78D1B200EB4110012B12D0D0F8F0
:10370000001B002906DB2AB1D0F8001B21F0804104
:10371000C0F8001BD0F8001B41F40011C0F8001BDA
:1037200000207047D0F80019002906DB2AB1D0F834
:10373000001921F08041C0F80019D0F8001941F4B7
:103740000011C0F80019EBE7F8B50C784F78774D09
:10375000E3B26FF0604600EB4313012F26D0D3F89D
:10376000104B6FF31204C3F8104BD3F8104B2C40DE
:10377000C3F8104B4C69002C74D08D682C44641E27
:10378000B4FBF5F4D3F8105BA4B206EAC4463543A3
:10379000C3F8105BD3F8105B8E686643C6F312045F
:1037A0002543C3F8105B012A71D0A6E04F691FB30F
:1037B000D3F810796FF31207C3F81079D3F81079A2
:1037C0002F40C3F810794F698D682F447F1EB7FBD7
:1037D000F5F506EAC545D3F810693543C3F8105925
:1037E000D3F810594E69C6F312063543C3F8105981
:1037F000CD78012D10D01BE0D3F810692E40C3F80E
:103800001069D3F8105945F40025C3F81059D3F8BE
:1038100010596FF3120509E0D3F8105925F0C0458F
:10382000C3F81059D3F8105945F00055C3F8105992
:10383000012A18D000EB4413D3F8004944F00444A3
:10384000C3F80049CC78012C2FD04A6962B3D0F874
:103850003428097801F00F03012199400A43C0F888
:10386000342860E036E00A691AB100EB4413C3F86B
:103870001429C97801290FD1D0F80818C90500EB1F
:103880004411D1F8002903D442F0005202E030E0A4
:1038900042F08052C1F8002900EB4410D0F8001922
:1038A00041F00441C0F800193DE0D0F80848E405B3
:1038B000D3F8004902D444F0005401E044F08054AD
:1038C000C3F8004900928A8A93B20A78C96800F066
:1038D00061F928E0D3F8104B8D68C5F312052C432D
:1038E000C3F8104BD3F8104B44F40024C3F8104B2A
:1038F00059E7CA680AB1C3F8142BC97801290CD159
:10390000D0F80808C005D3F8000B02D440F00050EE
:1039100001E040F08050C3F8000BD3F8000B40F0FA
:103920000440C3F8000B0020F8BD0000FFFF07E0D3
:10393000816841F001018160002070470021102260
:103940000261054A491C914201D90320704703696D
:10395000DB06F7D400207047400D0300002220232F
:1039600043EA811101610549521C8A4201D90320B1
:10397000704703699B06F7D400207047400D030091
:10398000D0F8080810F0060004D0022803D006285A
:1039900001D00F20704702207047406900F00100FD
:1039A0007047D0F81818D0F81C08084080B270474B
:1039B000D0F81818D0F81C080840000C704710B553
:1039C000D0F81038D0F8342801F00F0400EB411083
:1039D000E24002F00102D0F8080943EAC2121040A6
:1039E00010BD00EB4111D1F8081BD0F814080840B5
:1039F00070474169806908407047D21C10B5930830
:103A0000002200F5805002E00468521C10C19A4266
:103A1000FAD3084610BD10B5C26822F0C042C26099
:103A2000012902D029B1012010BDC16841F0005127
:103A300002E0C16841F08041C1603220FCF764FFC0
:103A4000002010BDD0F8002822F4FE62C0F8002843
:103A5000D0F800284FF4FE6303EA01110A43C0F8CE
:103A60000028002070470000022A3ED1264A274B3A
:103A70000A449A4201D20F2138E0254A254B0A44D4
:103A80009A4201D20E2131E0234A244B0A449A4241
:103A900001D20D212AE0224A224B0A449A4201D245
:103AA0000C2123E0204A214B0A449A4201D20B21E7
:103AB0001CE01F4A1F4B0A449A4201D20A2115E01A
:103AC0001D4A1E4B0A449A420FD31D4A1D4B0A44FD
:103AD0009A4201D2082109E01B4A11441B4A914233
:103AE00001D2072102E0062100E00921C26822F488
:103AF0007052C260C2684FF4705303EA81210A43D6
:103B0000C260002070470000405327FF00350C00C2
:103B1000401E1BFF40420F0000DC0BFF804F1200D5
:103B2000808CF9FE20D6130060B6E5FE60E3160037
:103B300000D3CEFE40771B00C05BB3FEC0912100D6
:103B400000CA91FE20753800E05459FEE09C410007
:103B500010B5044600214FF67F3000BF04EB411240
:103B6000C2F80809C2F8080B491C0F29F6D3002037
:103B7000C4F81008C4F81408C4F81C082046FFF75D
:103B8000DDFE002805D12046BDE810401021FFF7DA
:103B9000E5BE10BD10B5029C64B9DB1C9C0800EBAF
:103BA0000230002300F5805002E004C902605B1C73
:103BB000A342FAD3002010BDFEE70907090E002832
:103BC00004DB00F1E02080F80014704700F00F00E3
:103BD00000F1E02080F8141D704702E008C8121FB1
:103BE00008C1002AFAD170477047002001E001C1E6
:103BF000121F002AFBD17047F0B51E4947F6181076
:103C00001D4D0A784FF47A74B0FBF2F34B8100201B
:103C10001A4E10E003FB00F707F57A7795FBF7F7EC
:103C20000B3FBFB226F82070B4FBF7F706EB800C11
:103C3000401CACF802709042ECDB4A7846F2180067
:103C4000B0FBF2F38B8100200D490FE003FB00F67F
:103C500006F57A7695FBF6F60B3EB6B221F82060B3
:103C6000B4FBF6F601EB8007401C7E809042EDDB52
:103C7000F0BD00006C00002040420F00940A0020BC
:103C8000900E002010B5002821D0114B0022001FFB
:103C9000196803E0814203D80A4649680029F9D12E
:103CA00052B11368841A9C4204D100681844106011
:103CB000104602E0506000E0186039B102680B1A4B
:103CC000934203D10B681A4402604968416010BDF9
:103CD000200100202DE9F04700F0F4FA00252C46E1
:103CE000DFF8E490394E4FF48047DFF8E4801BE0C2
:103CF00039F8251009EB8500318140880024F080D7
:103D000007E000BF00F00EFB3089FCF7FDFD641CEE
:103D1000E4B239464046FCF7E5FE012802D1F088BE
:103D20008442EFD36D1CEDB239464046FCF7DAFE13
:103D3000012802D130788542DAD3307885422AD101
:103D400009EB800030F8040C308104E000F0EAFA5E
:103D50003089FCF7D9FD39464046FCF7C3FE0128FF
:103D6000F4D018E06D1EEDB239F82510318114B190
:103D7000F48000240BE009EB85004088F08006E029
:103D800000F0D0FA3089FCF7BFFD641CE4B2F08883
:103D90008442F5D30024002DE4D100F083FAB9F871
:103DA00000003081444604E000F0BCFA3089FCF7A2
:103DB000ABFD39462046FCF795FE0128F4D10020E2
:103DC000B062BDE8F0870000940A00206C0000207B
:103DD000000402402DE9F04700F094FA00252C463B
:103DE000DFF8E490394E4FF48067DFF8E4801BE0A1
:103DF00039F8251009EB8500318140880024401CEA
:103E0000F08006E000F09EFA3089FCF77DFD641C2E
:103E1000E4B239464046FCF765FE012802D1F0883D
:103E20008442EFD36D1CEDB239464046FCF75AFE92
:103E3000012802D170788542DAD3707885422AD180
:103E400009EB800030F8040C308104E000F07AFACD
:103E50003089FCF759FD39464046FCF743FE0128FE
:103E6000F4D018E06D1EEDB239F82510318114B18F
:103E7000F48000240BE009EB85004088F08006E028
:103E800000F060FA3089FCF73FFD641CE4B2F08872
:103E90008442F5D30024002DE4D100F023FAB9F8D0
:103EA00000003081444604E000F04CFA3089FCF711
:103EB0002BFD39462046FCF715FE0128F4D10020E1
:103EC0003063BDE8F0870000900E00206C000020F9
:103ED0000004024086B0142243496846FCF7A1F969
:103EE000FCF718FEFEF738F9FDF7BEFFFDF790FF6F
:103EF0003F483E494FF4E13500240160C0E90154D8
:103F00000C26C460C0E904468461C461FDF764FE08
:103F10003748384940300160C0E90154C460C0E905
:103F200004468461C461FDF757FEFEF71FF84FF4A5
:103F30007A70FCF7E9FC002069460C54401C1228FA
:103F4000FBDB2D482D4E0068B0FBF6F0FDF7A4FD1D
:103F5000FF208DF8000001208DF80100FFF74CFED6
:103F60000024274DDFF89C80274F12E038F82410FA
:103F700008EB84000A0A8DF800208DF80110807883
:103F80008DF802002B46032269461948FDF7B9FE59
:103F9000641C38788442E9DBFFF71CFFFFF79AFEC8
:103FA00000F004F93046FCF7AFFC184E7742284683
:103FB000FCF7AAFC0024304600F060F828B92B4634
:103FC000032269460A48FDF79CFE384600F056F881
:103FD00028B92B46032269460548FDF792FE641C6A
:103FE000FA2CE8DBE3E7000064430008004C0040E3
:103FF0007001002000440040B400002040420F0047
:10400000A0860100940A00206C0000208038010086
:10401000F0B50B30154D20F007010024144A0FE0D5
:1040200003688B420BD38B4205D95E1A431847684D
:10403000C3E9006700E04368136002C004E0021DAA
:1040400010680028ECD12046002802D1286808B169
:104050000020F0BD064A07481060074A121A22F0F5
:104060000702C0E9002401202860D7E724010020CE
:104070002001002094130020903300202DE9F05FF0
:10408000464E04464649B06A00EB040989457BD890
:10409000002C03DA00F016F9FF2002E000F002F92C
:1040A0000120B070002C00DA64420027A0463D4693
:1040B0004FF4804B1DE03B48002530F8271000EB03
:1040C000870031814088F0800CE059463648FCF783
:1040D00009FD012801D100F025F93089641EFCF7A3
:1040E00013FC6D1CF088854202DAB4EB6A0FECDC3D
:1040F0007F1C3078874204DA08EBD87AB4EB6A0F79
:10410000D9DC3078B246874216D1C8EB4406002588
:10411000DFF894800DE059464046FCF7E3FC0128A7
:1041200001D100F0FFF8BAF80800641EFCF7ECFBC0
:104130006D1CB542EFDB00255646002F27DB002C17
:1041400025DB18487F1E30F82710318115B1F58026
:10415000002503E000EB87004088F080DFF848800E
:10416000F088854211DA002C0FDD08DD5946404603
:10417000FCF7B8FC012801D100F0D4F8641E3089A6
:10418000FCF7C2FB6D1CEBE706E00025D5E701203C
:10419000C6F82890BDE8F09F0020FBE76C000020E7
:1041A00080380100940A0020000402402DE9F0410B
:1041B00000F098F800252C46DFF8DC80374E384FA9
:1041C0001AE038F8251008EB85003181408800247A
:1041D000F08006E000F0B6F83089FCF795FB641C2F
:1041E000E4B208213846FCF77DFC012802D1F088B2
:1041F0008442EFD36D1CEDB208213846FCF772FC07
:10420000012802D170788542DBD3707885422AD1AB
:1042100008EB800030F8040C308104E000F092F8E4
:104220003089FCF771FB08213846FCF75BFC01285C
:10423000F4D018E06D1EEDB238F82510318114B1BC
:10424000F48000240BE008EB85004088F08006E055
:1042500000F078F83089FCF757FB641CE4B2F08872
:104260008442F5D30024002DE4D100F04BF8B8F8D7
:104270000000308105E000BF00F064F83089FCF7F1
:1042800043FB08213846FCF72DFC0128F4D100201F
:1042900030630120BDE8F081900E00206C0000200A
:1042A00000080240054910B54FF400008861044C35
:1042B000606AFCF729FB0120A07010BD00000240DD
:1042C0006C000020054910B580208861044C606AAC
:1042D000FCF71AFBFF20A07010BD00000000024098
:1042E0006C000020054910B54FF400108861044CA3
:1042F000606AFCF709FB0120207110BD000002403C
:104300006C000020054910B520208861044C606ACB
:10431000FCF7FAFAFF20207110BD000000000240F7
:104320006C00002010B5054C4020A0610448006AD4
:10433000FCF7EAFA6001A06110BD00000000024035
:104340006C00002010B5054C1020A0610448006AE4
:10435000FCF7DAFAE000A06110BD000000000240A6
:104360006C00002065727200000000000000000078
:10437000000000000000000000000000000001023A
:1043800003040607080900000000010203040000FE
:1043900040496E7465726E616C20466C6173682072
:1043A00020202F307830383030303030302F3033DC
:1043B0002A3031364B612C30312A3031364B672C64
:1043C00030312A3036344B672C30372A3132384B73
:1043D000672C30342A3031364B672C30312A303656
:1043E000344B672C30372A3132384B6700000000DD
:1043F000104400080000002028010000DA3B0008FB
:10440000384500082801002068720000EA3B0008D7
:10441000A1280008D1280008DD2800080529000887
:104420003929000881280008AD2800080403090480
:104430001201000200000040830411DF00020102AB
:10444000030100001A03000000000000000000004B
:10445000000000000000000000000000000000005C
:1044600090430008051E0008F91D0008FD1D000806
:104470000D1E0008091E0008011E00082C52000035
:104480000000000000000000000000008057000055
:10449000000000008057000040BBFFFF0900000043
:1044A000E703000000000000000000000000000022
:1044B00000000000000000000100000010000000EB
:1044C000000000000024F40000000000D1260008D5
:1044D000752500082D270008B7250008B32500081A
:1044E0006D250008712500082927000817270008F6
:1044F0001B2700089926000899260008992600081D
:10450000A5260008B126000809021B00010102C00F
:10451000320904000000FE01020609210BFF000021
:10452000041A01000A060002000000400100000019
:08453000000000000000000083
:040000050800018965
:00000001FF
